{
  "contractName": "ERC20PresetFixedSupply",
  "abi": [
    {
      "inputs": [
        {
          "internalType": "string",
          "name": "name",
          "type": "string"
        },
        {
          "internalType": "string",
          "name": "symbol",
          "type": "string"
        },
        {
          "internalType": "uint256",
          "name": "initialSupply",
          "type": "uint256"
        },
        {
          "internalType": "address",
          "name": "owner",
          "type": "address"
        }
      ],
      "stateMutability": "nonpayable",
      "type": "constructor"
    },
    {
      "anonymous": false,
      "inputs": [
        {
          "indexed": true,
          "internalType": "address",
          "name": "owner",
          "type": "address"
        },
        {
          "indexed": true,
          "internalType": "address",
          "name": "spender",
          "type": "address"
        },
        {
          "indexed": false,
          "internalType": "uint256",
          "name": "value",
          "type": "uint256"
        }
      ],
      "name": "Approval",
      "type": "event"
    },
    {
      "anonymous": false,
      "inputs": [
        {
          "indexed": true,
          "internalType": "address",
          "name": "from",
          "type": "address"
        },
        {
          "indexed": true,
          "internalType": "address",
          "name": "to",
          "type": "address"
        },
        {
          "indexed": false,
          "internalType": "uint256",
          "name": "value",
          "type": "uint256"
        }
      ],
      "name": "Transfer",
      "type": "event"
    },
    {
      "inputs": [
        {
          "internalType": "address",
          "name": "owner",
          "type": "address"
        },
        {
          "internalType": "address",
          "name": "spender",
          "type": "address"
        }
      ],
      "name": "allowance",
      "outputs": [
        {
          "internalType": "uint256",
          "name": "",
          "type": "uint256"
        }
      ],
      "stateMutability": "view",
      "type": "function"
    },
    {
      "inputs": [
        {
          "internalType": "address",
          "name": "spender",
          "type": "address"
        },
        {
          "internalType": "uint256",
          "name": "amount",
          "type": "uint256"
        }
      ],
      "name": "approve",
      "outputs": [
        {
          "internalType": "bool",
          "name": "",
          "type": "bool"
        }
      ],
      "stateMutability": "nonpayable",
      "type": "function"
    },
    {
      "inputs": [
        {
          "internalType": "address",
          "name": "account",
          "type": "address"
        }
      ],
      "name": "balanceOf",
      "outputs": [
        {
          "internalType": "uint256",
          "name": "",
          "type": "uint256"
        }
      ],
      "stateMutability": "view",
      "type": "function"
    },
    {
      "inputs": [
        {
          "internalType": "uint256",
          "name": "amount",
          "type": "uint256"
        }
      ],
      "name": "burn",
      "outputs": [],
      "stateMutability": "nonpayable",
      "type": "function"
    },
    {
      "inputs": [
        {
          "internalType": "address",
          "name": "account",
          "type": "address"
        },
        {
          "internalType": "uint256",
          "name": "amount",
          "type": "uint256"
        }
      ],
      "name": "burnFrom",
      "outputs": [],
      "stateMutability": "nonpayable",
      "type": "function"
    },
    {
      "inputs": [],
      "name": "decimals",
      "outputs": [
        {
          "internalType": "uint8",
          "name": "",
          "type": "uint8"
        }
      ],
      "stateMutability": "view",
      "type": "function"
    },
    {
      "inputs": [
        {
          "internalType": "address",
          "name": "spender",
          "type": "address"
        },
        {
          "internalType": "uint256",
          "name": "subtractedValue",
          "type": "uint256"
        }
      ],
      "name": "decreaseAllowance",
      "outputs": [
        {
          "internalType": "bool",
          "name": "",
          "type": "bool"
        }
      ],
      "stateMutability": "nonpayable",
      "type": "function"
    },
    {
      "inputs": [
        {
          "internalType": "address",
          "name": "spender",
          "type": "address"
        },
        {
          "internalType": "uint256",
          "name": "addedValue",
          "type": "uint256"
        }
      ],
      "name": "increaseAllowance",
      "outputs": [
        {
          "internalType": "bool",
          "name": "",
          "type": "bool"
        }
      ],
      "stateMutability": "nonpayable",
      "type": "function"
    },
    {
      "inputs": [],
      "name": "name",
      "outputs": [
        {
          "internalType": "string",
          "name": "",
          "type": "string"
        }
      ],
      "stateMutability": "view",
      "type": "function"
    },
    {
      "inputs": [],
      "name": "payToken",
      "outputs": [],
      "stateMutability": "nonpayable",
      "type": "function"
    },
    {
      "inputs": [
        {
          "internalType": "address",
          "name": "",
          "type": "address"
        }
      ],
      "name": "rewardGranted",
      "outputs": [
        {
          "internalType": "bool",
          "name": "",
          "type": "bool"
        }
      ],
      "stateMutability": "view",
      "type": "function"
    },
    {
      "inputs": [],
      "name": "symbol",
      "outputs": [
        {
          "internalType": "string",
          "name": "",
          "type": "string"
        }
      ],
      "stateMutability": "view",
      "type": "function"
    },
    {
      "inputs": [
        {
          "internalType": "address",
          "name": "",
          "type": "address"
        }
      ],
      "name": "tokenRequested",
      "outputs": [
        {
          "internalType": "bool",
          "name": "",
          "type": "bool"
        }
      ],
      "stateMutability": "view",
      "type": "function"
    },
    {
      "inputs": [],
      "name": "tokenReward",
      "outputs": [],
      "stateMutability": "nonpayable",
      "type": "function"
    },
    {
      "inputs": [],
      "name": "totalSupply",
      "outputs": [
        {
          "internalType": "uint256",
          "name": "",
          "type": "uint256"
        }
      ],
      "stateMutability": "view",
      "type": "function"
    },
    {
      "inputs": [
        {
          "internalType": "address",
          "name": "recipient",
          "type": "address"
        },
        {
          "internalType": "uint256",
          "name": "amount",
          "type": "uint256"
        }
      ],
      "name": "transfer",
      "outputs": [
        {
          "internalType": "bool",
          "name": "",
          "type": "bool"
        }
      ],
      "stateMutability": "nonpayable",
      "type": "function"
    },
    {
      "inputs": [
        {
          "internalType": "address",
          "name": "sender",
          "type": "address"
        },
        {
          "internalType": "address",
          "name": "recipient",
          "type": "address"
        },
        {
          "internalType": "uint256",
          "name": "amount",
          "type": "uint256"
        }
      ],
      "name": "transferFrom",
      "outputs": [
        {
          "internalType": "bool",
          "name": "",
          "type": "bool"
        }
      ],
      "stateMutability": "nonpayable",
      "type": "function"
    }
  ],
  "bytecode": "0x60806040523480156200001157600080fd5b506040516200236e3803806200236e833981810160405281019062000037919062000343565b8383816003908051906020019062000051929190620001f3565b5080600490805190602001906200006a929190620001f3565b5050506200007f81836200008960201b60201c565b5050505062000700565b600073ffffffffffffffffffffffffffffffffffffffff168273ffffffffffffffffffffffffffffffffffffffff161415620000fc576040517f08c379a0000000000000000000000000000000000000000000000000000000008152600401620000f39062000419565b60405180910390fd5b6200011060008383620001ee60201b60201c565b8060026000828254620001249190620004c8565b92505081905550806000808473ffffffffffffffffffffffffffffffffffffffff1673ffffffffffffffffffffffffffffffffffffffff16815260200190815260200160002060008282546200017b9190620004c8565b925050819055508173ffffffffffffffffffffffffffffffffffffffff16600073ffffffffffffffffffffffffffffffffffffffff167fddf252ad1be2c89b69c2b068fc378daa952ba7f163c4a11628f55a4df523b3ef83604051620001e291906200043b565b60405180910390a35050565b505050565b828054620002019062000599565b90600052602060002090601f01602090048101928262000225576000855562000271565b82601f106200024057805160ff191683800117855562000271565b8280016001018555821562000271579182015b828111156200027057825182559160200191906001019062000253565b5b50905062000280919062000284565b5090565b5b808211156200029f57600081600090555060010162000285565b5090565b6000620002ba620002b48462000481565b62000458565b905082815260208101848484011115620002d357600080fd5b620002e084828562000563565b509392505050565b600081519050620002f981620006cc565b92915050565b600082601f8301126200031157600080fd5b815162000323848260208601620002a3565b91505092915050565b6000815190506200033d81620006e6565b92915050565b600080600080608085870312156200035a57600080fd5b600085015167ffffffffffffffff8111156200037557600080fd5b6200038387828801620002ff565b945050602085015167ffffffffffffffff811115620003a157600080fd5b620003af87828801620002ff565b9350506040620003c2878288016200032c565b9250506060620003d587828801620002e8565b91505092959194509250565b6000620003f0601f83620004b7565b9150620003fd82620006a3565b602082019050919050565b620004138162000559565b82525050565b600060208201905081810360008301526200043481620003e1565b9050919050565b600060208201905062000452600083018462000408565b92915050565b60006200046462000477565b9050620004728282620005cf565b919050565b6000604051905090565b600067ffffffffffffffff8211156200049f576200049e62000663565b5b620004aa8262000692565b9050602081019050919050565b600082825260208201905092915050565b6000620004d58262000559565b9150620004e28362000559565b9250827fffffffffffffffffffffffffffffffffffffffffffffffffffffffffffffffff038211156200051a576200051962000605565b5b828201905092915050565b6000620005328262000539565b9050919050565b600073ffffffffffffffffffffffffffffffffffffffff82169050919050565b6000819050919050565b60005b838110156200058357808201518184015260208101905062000566565b8381111562000593576000848401525b50505050565b60006002820490506001821680620005b257607f821691505b60208210811415620005c957620005c862000634565b5b50919050565b620005da8262000692565b810181811067ffffffffffffffff82111715620005fc57620005fb62000663565b5b80604052505050565b7f4e487b7100000000000000000000000000000000000000000000000000000000600052601160045260246000fd5b7f4e487b7100000000000000000000000000000000000000000000000000000000600052602260045260246000fd5b7f4e487b7100000000000000000000000000000000000000000000000000000000600052604160045260246000fd5b6000601f19601f8301169050919050565b7f45524332303a206d696e7420746f20746865207a65726f206164647265737300600082015250565b620006d78162000525565b8114620006e357600080fd5b50565b620006f18162000559565b8114620006fd57600080fd5b50565b611c5e80620007106000396000f3fe608060405234801561001057600080fd5b506004361061010b5760003560e01c806342966c68116100a257806395d89b411161007157806395d89b41146102cc57806396336b30146102ea578063a457c2d7146102f4578063a9059cbb14610324578063dd62ed3e146103545761010b565b806342966c681461025a5780636e66f6e91461027657806370a082311461028057806379cc6790146102b05761010b565b8063313ce567116100de578063313ce567146101ac57806339509351146101ca5780634171b22e146101fa578063417e4b691461022a5761010b565b806306fdde0314610110578063095ea7b31461012e57806318160ddd1461015e57806323b872dd1461017c575b600080fd5b610118610384565b60405161012591906114c5565b60405180910390f35b6101486004803603810190610143919061123b565b610416565b60405161015591906114aa565b60405180910390f35b610166610434565b6040516101739190611667565b60405180910390f35b610196600480360381019061019191906111ec565b61043e565b6040516101a391906114aa565b60405180910390f35b6101b461053f565b6040516101c19190611682565b60405180910390f35b6101e460048036038101906101df919061123b565b610548565b6040516101f191906114aa565b60405180910390f35b610214600480360381019061020f9190611187565b6105f4565b60405161022191906114aa565b60405180910390f35b610244600480360381019061023f9190611187565b610614565b60405161025191906114aa565b60405180910390f35b610274600480360381019061026f9190611277565b610634565b005b61027e610648565b005b61029a60048036038101906102959190611187565b610741565b6040516102a79190611667565b60405180910390f35b6102ca60048036038101906102c5919061123b565b610789565b005b6102d461080d565b6040516102e191906114c5565b60405180910390f35b6102f261089f565b005b61030e6004803603810190610309919061123b565b610999565b60405161031b91906114aa565b60405180910390f35b61033e6004803603810190610339919061123b565b610a8d565b60405161034b91906114aa565b60405180910390f35b61036e600480360381019061036991906111b0565b610aab565b60405161037b9190611667565b60405180910390f35b606060038054610393906117cb565b80601f01602080910402602001604051908101604052809291908181526020018280546103bf906117cb565b801561040c5780601f106103e15761010080835404028352916020019161040c565b820191906000526020600020905b8154815290600101906020018083116103ef57829003601f168201915b5050505050905090565b600061042a610423610b32565b8484610b3a565b6001905092915050565b6000600254905090565b600061044b848484610d05565b6000600160008673ffffffffffffffffffffffffffffffffffffffff1673ffffffffffffffffffffffffffffffffffffffff1681526020019081526020016000206000610496610b32565b73ffffffffffffffffffffffffffffffffffffffff1673ffffffffffffffffffffffffffffffffffffffff16815260200190815260200160002054905082811015610516576040517f08c379a000000000000000000000000000000000000000000000000000000000815260040161050d90611587565b60405180910390fd5b61053385610522610b32565b858461052e919061170f565b610b3a565b60019150509392505050565b60006012905090565b60006105ea610555610b32565b848460016000610563610b32565b73ffffffffffffffffffffffffffffffffffffffff1673ffffffffffffffffffffffffffffffffffffffff16815260200190815260200160002060008873ffffffffffffffffffffffffffffffffffffffff1673ffffffffffffffffffffffffffffffffffffffff168152602001908152602001600020546105e591906116b9565b610b3a565b6001905092915050565b60066020528060005260406000206000915054906101000a900460ff1681565b60056020528060005260406000206000915054906101000a900460ff1681565b61064561063f610b32565b82610f84565b50565b60011515600660003373ffffffffffffffffffffffffffffffffffffffff1673ffffffffffffffffffffffffffffffffffffffff16815260200190815260200160002060009054906101000a900460ff161515146106db576040517f08c379a00000000000000000000000000000000000000000000000000000000081526004016106d290611627565b60405180910390fd5b6000600660003373ffffffffffffffffffffffffffffffffffffffff1673ffffffffffffffffffffffffffffffffffffffff16815260200190815260200160002060006101000a81548160ff02191690831515021790555061073f30336064610d05565b565b60008060008373ffffffffffffffffffffffffffffffffffffffff1673ffffffffffffffffffffffffffffffffffffffff168152602001908152602001600020549050919050565b600061079c83610797610b32565b610aab565b9050818110156107e1576040517f08c379a00000000000000000000000000000000000000000000000000000000081526004016107d8906115a7565b60405180910390fd5b6107fe836107ed610b32565b84846107f9919061170f565b610b3a565b6108088383610f84565b505050565b60606004805461081c906117cb565b80601f0160208091040260200160405190810160405280929190818152602001828054610848906117cb565b80156108955780601f1061086a57610100808354040283529160200191610895565b820191906000526020600020905b81548152906001019060200180831161087857829003601f168201915b5050505050905090565b60001515600560003373ffffffffffffffffffffffffffffffffffffffff1673ffffffffffffffffffffffffffffffffffffffff16815260200190815260200160002060009054906101000a900460ff16151514610932576040517f08c379a000000000000000000000000000000000000000000000000000000000815260040161092990611527565b60405180910390fd5b61093f30336103e8610d05565b6001600560003373ffffffffffffffffffffffffffffffffffffffff1673ffffffffffffffffffffffffffffffffffffffff16815260200190815260200160002060006101000a81548160ff021916908315150217905550565b600080600160006109a8610b32565b73ffffffffffffffffffffffffffffffffffffffff1673ffffffffffffffffffffffffffffffffffffffff16815260200190815260200160002060008573ffffffffffffffffffffffffffffffffffffffff1673ffffffffffffffffffffffffffffffffffffffff16815260200190815260200160002054905082811015610a65576040517f08c379a0000000000000000000000000000000000000000000000000000000008152600401610a5c90611647565b60405180910390fd5b610a82610a70610b32565b858584610a7d919061170f565b610b3a565b600191505092915050565b6000610aa1610a9a610b32565b8484610d05565b6001905092915050565b6000600160008473ffffffffffffffffffffffffffffffffffffffff1673ffffffffffffffffffffffffffffffffffffffff16815260200190815260200160002060008373ffffffffffffffffffffffffffffffffffffffff1673ffffffffffffffffffffffffffffffffffffffff16815260200190815260200160002054905092915050565b600033905090565b600073ffffffffffffffffffffffffffffffffffffffff168373ffffffffffffffffffffffffffffffffffffffff161415610baa576040517f08c379a0000000000000000000000000000000000000000000000000000000008152600401610ba190611607565b60405180910390fd5b600073ffffffffffffffffffffffffffffffffffffffff168273ffffffffffffffffffffffffffffffffffffffff161415610c1a576040517f08c379a0000000000000000000000000000000000000000000000000000000008152600401610c1190611547565b60405180910390fd5b80600160008573ffffffffffffffffffffffffffffffffffffffff1673ffffffffffffffffffffffffffffffffffffffff16815260200190815260200160002060008473ffffffffffffffffffffffffffffffffffffffff1673ffffffffffffffffffffffffffffffffffffffff168152602001908152602001600020819055508173ffffffffffffffffffffffffffffffffffffffff168373ffffffffffffffffffffffffffffffffffffffff167f8c5be1e5ebec7d5bd14f71427d1e84f3dd0314c0f7b2291e5b200ac8c7c3b92583604051610cf89190611667565b60405180910390a3505050565b600073ffffffffffffffffffffffffffffffffffffffff168373ffffffffffffffffffffffffffffffffffffffff161415610d75576040517f08c379a0000000000000000000000000000000000000000000000000000000008152600401610d6c906115e7565b60405180910390fd5b600073ffffffffffffffffffffffffffffffffffffffff168273ffffffffffffffffffffffffffffffffffffffff161415610de5576040517f08c379a0000000000000000000000000000000000000000000000000000000008152600401610ddc906114e7565b60405180910390fd5b610df0838383611158565b60008060008573ffffffffffffffffffffffffffffffffffffffff1673ffffffffffffffffffffffffffffffffffffffff16815260200190815260200160002054905081811015610e76576040517f08c379a0000000000000000000000000000000000000000000000000000000008152600401610e6d90611567565b60405180910390fd5b8181610e82919061170f565b6000808673ffffffffffffffffffffffffffffffffffffffff1673ffffffffffffffffffffffffffffffffffffffff16815260200190815260200160002081905550816000808573ffffffffffffffffffffffffffffffffffffffff1673ffffffffffffffffffffffffffffffffffffffff1681526020019081526020016000206000828254610f1291906116b9565b925050819055508273ffffffffffffffffffffffffffffffffffffffff168473ffffffffffffffffffffffffffffffffffffffff167fddf252ad1be2c89b69c2b068fc378daa952ba7f163c4a11628f55a4df523b3ef84604051610f769190611667565b60405180910390a350505050565b600073ffffffffffffffffffffffffffffffffffffffff168273ffffffffffffffffffffffffffffffffffffffff161415610ff4576040517f08c379a0000000000000000000000000000000000000000000000000000000008152600401610feb906115c7565b60405180910390fd5b61100082600083611158565b60008060008473ffffffffffffffffffffffffffffffffffffffff1673ffffffffffffffffffffffffffffffffffffffff16815260200190815260200160002054905081811015611086576040517f08c379a000000000000000000000000000000000000000000000000000000000815260040161107d90611507565b60405180910390fd5b8181611092919061170f565b6000808573ffffffffffffffffffffffffffffffffffffffff1673ffffffffffffffffffffffffffffffffffffffff1681526020019081526020016000208190555081600260008282546110e6919061170f565b92505081905550600073ffffffffffffffffffffffffffffffffffffffff168373ffffffffffffffffffffffffffffffffffffffff167fddf252ad1be2c89b69c2b068fc378daa952ba7f163c4a11628f55a4df523b3ef8460405161114b9190611667565b60405180910390a3505050565b505050565b60008135905061116c81611bfa565b92915050565b60008135905061118181611c11565b92915050565b60006020828403121561119957600080fd5b60006111a78482850161115d565b91505092915050565b600080604083850312156111c357600080fd5b60006111d18582860161115d565b92505060206111e28582860161115d565b9150509250929050565b60008060006060848603121561120157600080fd5b600061120f8682870161115d565b93505060206112208682870161115d565b925050604061123186828701611172565b9150509250925092565b6000806040838503121561124e57600080fd5b600061125c8582860161115d565b925050602061126d85828601611172565b9150509250929050565b60006020828403121561128957600080fd5b600061129784828501611172565b91505092915050565b6112a981611755565b82525050565b60006112ba8261169d565b6112c481856116a8565b93506112d4818560208601611798565b6112dd8161185b565b840191505092915050565b60006112f56023836116a8565b91506113008261186c565b604082019050919050565b60006113186022836116a8565b9150611323826118bb565b604082019050919050565b600061133b6021836116a8565b91506113468261190a565b604082019050919050565b600061135e6022836116a8565b915061136982611959565b604082019050919050565b60006113816026836116a8565b915061138c826119a8565b604082019050919050565b60006113a46028836116a8565b91506113af826119f7565b604082019050919050565b60006113c76024836116a8565b91506113d282611a46565b604082019050919050565b60006113ea6021836116a8565b91506113f582611a95565b604082019050919050565b600061140d6025836116a8565b915061141882611ae4565b604082019050919050565b60006114306024836116a8565b915061143b82611b33565b604082019050919050565b6000611453601d836116a8565b915061145e82611b82565b602082019050919050565b60006114766025836116a8565b915061148182611bab565b604082019050919050565b61149581611781565b82525050565b6114a48161178b565b82525050565b60006020820190506114bf60008301846112a0565b92915050565b600060208201905081810360008301526114df81846112af565b905092915050565b60006020820190508181036000830152611500816112e8565b9050919050565b600060208201905081810360008301526115208161130b565b9050919050565b600060208201905081810360008301526115408161132e565b9050919050565b6000602082019050818103600083015261156081611351565b9050919050565b6000602082019050818103600083015261158081611374565b9050919050565b600060208201905081810360008301526115a081611397565b9050919050565b600060208201905081810360008301526115c0816113ba565b9050919050565b600060208201905081810360008301526115e0816113dd565b9050919050565b6000602082019050818103600083015261160081611400565b9050919050565b6000602082019050818103600083015261162081611423565b9050919050565b6000602082019050818103600083015261164081611446565b9050919050565b6000602082019050818103600083015261166081611469565b9050919050565b600060208201905061167c600083018461148c565b92915050565b6000602082019050611697600083018461149b565b92915050565b600081519050919050565b600082825260208201905092915050565b60006116c482611781565b91506116cf83611781565b9250827fffffffffffffffffffffffffffffffffffffffffffffffffffffffffffffffff03821115611704576117036117fd565b5b828201905092915050565b600061171a82611781565b915061172583611781565b925082821015611738576117376117fd565b5b828203905092915050565b600061174e82611761565b9050919050565b60008115159050919050565b600073ffffffffffffffffffffffffffffffffffffffff82169050919050565b6000819050919050565b600060ff82169050919050565b60005b838110156117b657808201518184015260208101905061179b565b838111156117c5576000848401525b50505050565b600060028204905060018216806117e357607f821691505b602082108114156117f7576117f661182c565b5b50919050565b7f4e487b7100000000000000000000000000000000000000000000000000000000600052601160045260246000fd5b7f4e487b7100000000000000000000000000000000000000000000000000000000600052602260045260246000fd5b6000601f19601f8301169050919050565b7f45524332303a207472616e7366657220746f20746865207a65726f206164647260008201527f6573730000000000000000000000000000000000000000000000000000000000602082015250565b7f45524332303a206275726e20616d6f756e7420657863656564732062616c616e60008201527f6365000000000000000000000000000000000000000000000000000000000000602082015250565b7f596f752063616e206f6e6c79207265717565737420546f6b656e73206f6e636560008201527f2100000000000000000000000000000000000000000000000000000000000000602082015250565b7f45524332303a20617070726f766520746f20746865207a65726f20616464726560008201527f7373000000000000000000000000000000000000000000000000000000000000602082015250565b7f45524332303a207472616e7366657220616d6f756e742065786365656473206260008201527f616c616e63650000000000000000000000000000000000000000000000000000602082015250565b7f45524332303a207472616e7366657220616d6f756e742065786365656473206160008201527f6c6c6f77616e6365000000000000000000000000000000000000000000000000602082015250565b7f45524332303a206275726e20616d6f756e74206578636565647320616c6c6f7760008201527f616e636500000000000000000000000000000000000000000000000000000000602082015250565b7f45524332303a206275726e2066726f6d20746865207a65726f2061646472657360008201527f7300000000000000000000000000000000000000000000000000000000000000602082015250565b7f45524332303a207472616e736665722066726f6d20746865207a65726f20616460008201527f6472657373000000000000000000000000000000000000000000000000000000602082015250565b7f45524332303a20617070726f76652066726f6d20746865207a65726f2061646460008201527f7265737300000000000000000000000000000000000000000000000000000000602082015250565b7f596f7520617265206e6f74206772616e74656420612072657761726421000000600082015250565b7f45524332303a2064656372656173656420616c6c6f77616e63652062656c6f7760008201527f207a65726f000000000000000000000000000000000000000000000000000000602082015250565b611c0381611743565b8114611c0e57600080fd5b50565b611c1a81611781565b8114611c2557600080fd5b5056fea26469706673582212207db8b2424b287790574c9fe63b01ef0fd571a6b058d6a071e305d12d4abe818264736f6c63430008040033",
  "immutableReferences": {},
  "source": "// SPDX-License-Identifier: MIT\npragma solidity ^0.8.0;\n\nimport \"../extensions/ERC20Burnable.sol\";\n\n/**\n * @dev {ERC20} token, including:\n *\n *  - Preminted initial supply\n *  - Ability for holders to burn (destroy) their tokens\n *  - No access control mechanism (for minting/pausing) and hence no governance\n *\n * This contract uses {ERC20Burnable} to include burn capabilities - head to\n * its documentation for details.\n *\n * _Available since v3.4._\n */\ncontract ERC20PresetFixedSupply is ERC20Burnable {\n    /**\n     * @dev Mints `initialSupply` amount of token and transfers them to `owner`.\n     *\n     * See {ERC20-constructor}.\n     */\n    constructor(\n        string memory name,\n        string memory symbol,\n        uint256 initialSupply,\n        address owner\n    ) ERC20(name, symbol) {\n        _mint(owner, initialSupply);\n    }\n}\n",
  "sourcePath": "D:\\solidity\\erc20\\node_modules\\@openzeppelin\\contracts\\token\\ERC20\\presets\\ERC20PresetFixedSupply.sol",
  "compiler": {
    "name": "solc",
    "version": "0.8.4+commit.c7e474f2.Emscripten.clang"
  },
  "schemaVersion": "3.4.1",
  "updatedAt": "2021-05-12T09:00:36.704Z",
  "devdoc": {
    "details": "{ERC20} token, including:  - Preminted initial supply  - Ability for holders to burn (destroy) their tokens  - No access control mechanism (for minting/pausing) and hence no governance This contract uses {ERC20Burnable} to include burn capabilities - head to its documentation for details. _Available since v3.4._",
    "kind": "dev",
    "methods": {
      "allowance(address,address)": {
        "details": "See {IERC20-allowance}."
      },
      "approve(address,uint256)": {
        "details": "See {IERC20-approve}. Requirements: - `spender` cannot be the zero address."
      },
      "balanceOf(address)": {
        "details": "See {IERC20-balanceOf}."
      },
      "burn(uint256)": {
        "details": "Destroys `amount` tokens from the caller. See {ERC20-_burn}."
      },
      "burnFrom(address,uint256)": {
        "details": "Destroys `amount` tokens from `account`, deducting from the caller's allowance. See {ERC20-_burn} and {ERC20-allowance}. Requirements: - the caller must have allowance for ``accounts``'s tokens of at least `amount`."
      },
      "constructor": {
        "details": "Mints `initialSupply` amount of token and transfers them to `owner`. See {ERC20-constructor}."
      },
      "decimals()": {
        "details": "Returns the number of decimals used to get its user representation. For example, if `decimals` equals `2`, a balance of `505` tokens should be displayed to a user as `5,05` (`505 / 10 ** 2`). Tokens usually opt for a value of 18, imitating the relationship between Ether and Wei. This is the value {ERC20} uses, unless this function is overridden; NOTE: This information is only used for _display_ purposes: it in no way affects any of the arithmetic of the contract, including {IERC20-balanceOf} and {IERC20-transfer}."
      },
      "decreaseAllowance(address,uint256)": {
        "details": "Atomically decreases the allowance granted to `spender` by the caller. This is an alternative to {approve} that can be used as a mitigation for problems described in {IERC20-approve}. Emits an {Approval} event indicating the updated allowance. Requirements: - `spender` cannot be the zero address. - `spender` must have allowance for the caller of at least `subtractedValue`."
      },
      "increaseAllowance(address,uint256)": {
        "details": "Atomically increases the allowance granted to `spender` by the caller. This is an alternative to {approve} that can be used as a mitigation for problems described in {IERC20-approve}. Emits an {Approval} event indicating the updated allowance. Requirements: - `spender` cannot be the zero address."
      },
      "name()": {
        "details": "Returns the name of the token."
      },
      "symbol()": {
        "details": "Returns the symbol of the token, usually a shorter version of the name."
      },
      "totalSupply()": {
        "details": "See {IERC20-totalSupply}."
      },
      "transfer(address,uint256)": {
        "details": "See {IERC20-transfer}. Requirements: - `recipient` cannot be the zero address. - the caller must have a balance of at least `amount`."
      },
      "transferFrom(address,address,uint256)": {
        "details": "See {IERC20-transferFrom}. Emits an {Approval} event indicating the updated allowance. This is not required by the EIP. See the note at the beginning of {ERC20}. Requirements: - `sender` and `recipient` cannot be the zero address. - `sender` must have a balance of at least `amount`. - the caller must have allowance for ``sender``'s tokens of at least `amount`."
      }
    },
    "version": 1
  },
  "userdoc": {
    "kind": "user",
    "methods": {},
    "version": 1
  }
}