{
  "contractName": "MyTestNetToken",
  "abi": [
    {
      "inputs": [
        {
          "internalType": "string",
          "name": "name",
          "type": "string"
        },
        {
          "internalType": "string",
          "name": "symbol",
          "type": "string"
        },
        {
          "internalType": "uint256",
          "name": "initialSupply",
          "type": "uint256"
        },
        {
          "internalType": "address payable",
          "name": "owner",
          "type": "address"
        }
      ],
      "stateMutability": "nonpayable",
      "type": "constructor"
    },
    {
      "anonymous": false,
      "inputs": [
        {
          "indexed": true,
          "internalType": "address",
          "name": "owner",
          "type": "address"
        },
        {
          "indexed": true,
          "internalType": "address",
          "name": "spender",
          "type": "address"
        },
        {
          "indexed": false,
          "internalType": "uint256",
          "name": "value",
          "type": "uint256"
        }
      ],
      "name": "Approval",
      "type": "event"
    },
    {
      "anonymous": false,
      "inputs": [
        {
          "indexed": true,
          "internalType": "address",
          "name": "from",
          "type": "address"
        },
        {
          "indexed": true,
          "internalType": "address",
          "name": "to",
          "type": "address"
        },
        {
          "indexed": false,
          "internalType": "uint256",
          "name": "value",
          "type": "uint256"
        }
      ],
      "name": "Transfer",
      "type": "event"
    },
    {
      "inputs": [
        {
          "internalType": "address",
          "name": "owner",
          "type": "address"
        },
        {
          "internalType": "address",
          "name": "spender",
          "type": "address"
        }
      ],
      "name": "allowance",
      "outputs": [
        {
          "internalType": "uint256",
          "name": "",
          "type": "uint256"
        }
      ],
      "stateMutability": "view",
      "type": "function",
      "constant": true
    },
    {
      "inputs": [
        {
          "internalType": "address",
          "name": "spender",
          "type": "address"
        },
        {
          "internalType": "uint256",
          "name": "amount",
          "type": "uint256"
        }
      ],
      "name": "approve",
      "outputs": [
        {
          "internalType": "bool",
          "name": "",
          "type": "bool"
        }
      ],
      "stateMutability": "nonpayable",
      "type": "function"
    },
    {
      "inputs": [
        {
          "internalType": "address",
          "name": "account",
          "type": "address"
        }
      ],
      "name": "balanceOf",
      "outputs": [
        {
          "internalType": "uint256",
          "name": "",
          "type": "uint256"
        }
      ],
      "stateMutability": "view",
      "type": "function",
      "constant": true
    },
    {
      "inputs": [
        {
          "internalType": "uint256",
          "name": "amount",
          "type": "uint256"
        }
      ],
      "name": "burn",
      "outputs": [],
      "stateMutability": "nonpayable",
      "type": "function"
    },
    {
      "inputs": [
        {
          "internalType": "address",
          "name": "account",
          "type": "address"
        },
        {
          "internalType": "uint256",
          "name": "amount",
          "type": "uint256"
        }
      ],
      "name": "burnFrom",
      "outputs": [],
      "stateMutability": "nonpayable",
      "type": "function"
    },
    {
      "inputs": [],
      "name": "decimals",
      "outputs": [
        {
          "internalType": "uint8",
          "name": "",
          "type": "uint8"
        }
      ],
      "stateMutability": "view",
      "type": "function",
      "constant": true
    },
    {
      "inputs": [
        {
          "internalType": "address",
          "name": "spender",
          "type": "address"
        },
        {
          "internalType": "uint256",
          "name": "subtractedValue",
          "type": "uint256"
        }
      ],
      "name": "decreaseAllowance",
      "outputs": [
        {
          "internalType": "bool",
          "name": "",
          "type": "bool"
        }
      ],
      "stateMutability": "nonpayable",
      "type": "function"
    },
    {
      "inputs": [],
      "name": "fee",
      "outputs": [
        {
          "internalType": "uint256",
          "name": "",
          "type": "uint256"
        }
      ],
      "stateMutability": "view",
      "type": "function",
      "constant": true
    },
    {
      "inputs": [
        {
          "internalType": "address",
          "name": "spender",
          "type": "address"
        },
        {
          "internalType": "uint256",
          "name": "addedValue",
          "type": "uint256"
        }
      ],
      "name": "increaseAllowance",
      "outputs": [
        {
          "internalType": "bool",
          "name": "",
          "type": "bool"
        }
      ],
      "stateMutability": "nonpayable",
      "type": "function"
    },
    {
      "inputs": [],
      "name": "keyHash",
      "outputs": [
        {
          "internalType": "bytes32",
          "name": "",
          "type": "bytes32"
        }
      ],
      "stateMutability": "view",
      "type": "function",
      "constant": true
    },
    {
      "inputs": [],
      "name": "name",
      "outputs": [
        {
          "internalType": "string",
          "name": "",
          "type": "string"
        }
      ],
      "stateMutability": "view",
      "type": "function",
      "constant": true
    },
    {
      "inputs": [],
      "name": "payToken",
      "outputs": [],
      "stateMutability": "nonpayable",
      "type": "function"
    },
    {
      "inputs": [],
      "name": "randomResult",
      "outputs": [
        {
          "internalType": "uint256",
          "name": "",
          "type": "uint256"
        }
      ],
      "stateMutability": "view",
      "type": "function",
      "constant": true
    },
    {
      "inputs": [
        {
          "internalType": "bytes32",
          "name": "requestId",
          "type": "bytes32"
        },
        {
          "internalType": "uint256",
          "name": "randomness",
          "type": "uint256"
        }
      ],
      "name": "rawFulfillRandomness",
      "outputs": [],
      "stateMutability": "nonpayable",
      "type": "function"
    },
    {
      "inputs": [],
      "name": "symbol",
      "outputs": [
        {
          "internalType": "string",
          "name": "",
          "type": "string"
        }
      ],
      "stateMutability": "view",
      "type": "function",
      "constant": true
    },
    {
      "inputs": [],
      "name": "totalSupply",
      "outputs": [
        {
          "internalType": "uint256",
          "name": "",
          "type": "uint256"
        }
      ],
      "stateMutability": "view",
      "type": "function",
      "constant": true
    },
    {
      "inputs": [
        {
          "internalType": "address",
          "name": "recipient",
          "type": "address"
        },
        {
          "internalType": "uint256",
          "name": "amount",
          "type": "uint256"
        }
      ],
      "name": "transfer",
      "outputs": [
        {
          "internalType": "bool",
          "name": "",
          "type": "bool"
        }
      ],
      "stateMutability": "nonpayable",
      "type": "function"
    },
    {
      "inputs": [
        {
          "internalType": "address",
          "name": "sender",
          "type": "address"
        },
        {
          "internalType": "address",
          "name": "recipient",
          "type": "address"
        },
        {
          "internalType": "uint256",
          "name": "amount",
          "type": "uint256"
        }
      ],
      "name": "transferFrom",
      "outputs": [
        {
          "internalType": "bool",
          "name": "",
          "type": "bool"
        }
      ],
      "stateMutability": "nonpayable",
      "type": "function"
    },
    {
      "stateMutability": "payable",
      "type": "receive",
      "payable": true
    },
    {
      "inputs": [
        {
          "internalType": "uint256",
          "name": "userProvidedSeed",
          "type": "uint256"
        }
      ],
      "name": "getRandomNumber",
      "outputs": [
        {
          "internalType": "bytes32",
          "name": "requestId",
          "type": "bytes32"
        }
      ],
      "stateMutability": "nonpayable",
      "type": "function"
    },
    {
      "inputs": [
        {
          "internalType": "uint256",
          "name": "amount",
          "type": "uint256"
        }
      ],
      "name": "payout",
      "outputs": [],
      "stateMutability": "nonpayable",
      "type": "function"
    }
  ],
  "bytecode": "0x60c0604052738c7382f9d8f56b33781fe506e897a4f1e2d17255600a60006101000a81548173ffffffffffffffffffffffffffffffffffffffff021916908373ffffffffffffffffffffffffffffffffffffffff16021790555073326c977e6efc84e512bb9c30f76e30c160ed06fb600b60006101000a81548173ffffffffffffffffffffffffffffffffffffffff021916908373ffffffffffffffffffffffffffffffffffffffff160217905550348015620000bb57600080fd5b5060405162002d5138038062002d518339818101604052810190620000e1919062000558565b600a60009054906101000a900473ffffffffffffffffffffffffffffffffffffffff16600b60009054906101000a900473ffffffffffffffffffffffffffffffffffffffff166040518060400160405280600e81526020017f4d79546573744e6574546f6b656e0000000000000000000000000000000000008152506040518060400160405280600481526020017f4d544e540000000000000000000000000000000000000000000000000000000081525069d3c21bcecceda10000003383838160039080519060200190620001b992919062000408565b508060049080519060200190620001d292919062000408565b505050620001e781836200029e60201b60201c565b505050508173ffffffffffffffffffffffffffffffffffffffff1660a08173ffffffffffffffffffffffffffffffffffffffff1660601b815250508073ffffffffffffffffffffffffffffffffffffffff1660808173ffffffffffffffffffffffffffffffffffffffff1660601b8152505050507f6e75b569a01ef56d18cab6a8e71e6600d6ce853834d4a5748b720d06f878b3a460001b60078190555067016345785d8a00006008819055505050505062000915565b600073ffffffffffffffffffffffffffffffffffffffff168273ffffffffffffffffffffffffffffffffffffffff16141562000311576040517f08c379a000000000000000000000000000000000000000000000000000000000815260040162000308906200062e565b60405180910390fd5b62000325600083836200040360201b60201c565b8060026000828254620003399190620006dd565b92505081905550806000808473ffffffffffffffffffffffffffffffffffffffff1673ffffffffffffffffffffffffffffffffffffffff1681526020019081526020016000206000828254620003909190620006dd565b925050819055508173ffffffffffffffffffffffffffffffffffffffff16600073ffffffffffffffffffffffffffffffffffffffff167fddf252ad1be2c89b69c2b068fc378daa952ba7f163c4a11628f55a4df523b3ef83604051620003f7919062000650565b60405180910390a35050565b505050565b8280546200041690620007ae565b90600052602060002090601f0160209004810192826200043a576000855562000486565b82601f106200045557805160ff191683800117855562000486565b8280016001018555821562000486579182015b828111156200048557825182559160200191906001019062000468565b5b50905062000495919062000499565b5090565b5b80821115620004b45760008160009055506001016200049a565b5090565b6000620004cf620004c98462000696565b6200066d565b905082815260208101848484011115620004e857600080fd5b620004f584828562000778565b509392505050565b6000815190506200050e81620008e1565b92915050565b600082601f8301126200052657600080fd5b815162000538848260208601620004b8565b91505092915050565b6000815190506200055281620008fb565b92915050565b600080600080608085870312156200056f57600080fd5b600085015167ffffffffffffffff8111156200058a57600080fd5b620005988782880162000514565b945050602085015167ffffffffffffffff811115620005b657600080fd5b620005c48782880162000514565b9350506040620005d78782880162000541565b9250506060620005ea87828801620004fd565b91505092959194509250565b600062000605601f83620006cc565b91506200061282620008b8565b602082019050919050565b62000628816200076e565b82525050565b600060208201905081810360008301526200064981620005f6565b9050919050565b60006020820190506200066760008301846200061d565b92915050565b6000620006796200068c565b9050620006878282620007e4565b919050565b6000604051905090565b600067ffffffffffffffff821115620006b457620006b362000878565b5b620006bf82620008a7565b9050602081019050919050565b600082825260208201905092915050565b6000620006ea826200076e565b9150620006f7836200076e565b9250827fffffffffffffffffffffffffffffffffffffffffffffffffffffffffffffffff038211156200072f576200072e6200081a565b5b828201905092915050565b600062000747826200074e565b9050919050565b600073ffffffffffffffffffffffffffffffffffffffff82169050919050565b6000819050919050565b60005b83811015620007985780820151818401526020810190506200077b565b83811115620007a8576000848401525b50505050565b60006002820490506001821680620007c757607f821691505b60208210811415620007de57620007dd62000849565b5b50919050565b620007ef82620008a7565b810181811067ffffffffffffffff8211171562000811576200081062000878565b5b80604052505050565b7f4e487b7100000000000000000000000000000000000000000000000000000000600052601160045260246000fd5b7f4e487b7100000000000000000000000000000000000000000000000000000000600052602260045260246000fd5b7f4e487b7100000000000000000000000000000000000000000000000000000000600052604160045260246000fd5b6000601f19601f8301169050919050565b7f45524332303a206d696e7420746f20746865207a65726f206164647265737300600082015250565b620008ec816200073a565b8114620008f857600080fd5b50565b62000906816200076e565b81146200091257600080fd5b50565b60805160601c60a05160601c612409620009486000396000818161085d015261135b0152600061131f01526124096000f3fe6080604052600436106101235760003560e01c806379cc6790116100a0578063a9059cbb11610064578063a9059cbb146103f4578063b37217a414610431578063dd62ed3e1461046e578063ddca3f43146104ab578063e1152343146104d65761012a565b806379cc67901461032357806394985ddd1461034c57806395d89b411461037557806396336b30146103a0578063a457c2d7146103b75761012a565b806339509351116100e7578063395093511461022a57806342619f661461026757806342966c681461029257806361728f39146102bb57806370a08231146102e65761012a565b806306fdde031461012f578063095ea7b31461015a57806318160ddd1461019757806323b872dd146101c2578063313ce567146101ff5761012a565b3661012a57005b600080fd5b34801561013b57600080fd5b506101446104ff565b6040516101519190611b42565b60405180910390f35b34801561016657600080fd5b50610181600480360381019061017c919061165d565b610591565b60405161018e9190611a9e565b60405180910390f35b3480156101a357600080fd5b506101ac6105af565b6040516101b99190611d24565b60405180910390f35b3480156101ce57600080fd5b506101e960048036038101906101e4919061160e565b6105b9565b6040516101f69190611a9e565b60405180910390f35b34801561020b57600080fd5b506102146106ba565b6040516102219190611d3f565b60405180910390f35b34801561023657600080fd5b50610251600480360381019061024c919061165d565b6106c3565b60405161025e9190611a9e565b60405180910390f35b34801561027357600080fd5b5061027c61076f565b6040516102899190611d24565b60405180910390f35b34801561029e57600080fd5b506102b960048036038101906102b491906116fe565b610775565b005b3480156102c757600080fd5b506102d0610789565b6040516102dd9190611ab9565b60405180910390f35b3480156102f257600080fd5b5061030d600480360381019061030891906115a9565b61078f565b60405161031a9190611d24565b60405180910390f35b34801561032f57600080fd5b5061034a6004803603810190610345919061165d565b6107d7565b005b34801561035857600080fd5b50610373600480360381019061036e91906116c2565b61085b565b005b34801561038157600080fd5b5061038a6108f7565b6040516103979190611b42565b60405180910390f35b3480156103ac57600080fd5b506103b5610989565b005b3480156103c357600080fd5b506103de60048036038101906103d9919061165d565b610a83565b6040516103eb9190611a9e565b60405180910390f35b34801561040057600080fd5b5061041b6004803603810190610416919061165d565b610b77565b6040516104289190611a9e565b60405180910390f35b34801561043d57600080fd5b50610458600480360381019061045391906116fe565b610b95565b6040516104659190611ab9565b60405180910390f35b34801561047a57600080fd5b50610495600480360381019061049091906115d2565b610bad565b6040516104a29190611d24565b60405180910390f35b3480156104b757600080fd5b506104c0610c34565b6040516104cd9190611d24565b60405180910390f35b3480156104e257600080fd5b506104fd60048036038101906104f891906116fe565b610c3a565b005b60606003805461050e90611eb9565b80601f016020809104026020016040519081016040528092919081815260200182805461053a90611eb9565b80156105875780601f1061055c57610100808354040283529160200191610587565b820191906000526020600020905b81548152906001019060200180831161056a57829003601f168201915b5050505050905090565b60006105a561059e610cea565b8484610cf2565b6001905092915050565b6000600254905090565b60006105c6848484610ebd565b6000600160008673ffffffffffffffffffffffffffffffffffffffff1673ffffffffffffffffffffffffffffffffffffffff1681526020019081526020016000206000610611610cea565b73ffffffffffffffffffffffffffffffffffffffff1673ffffffffffffffffffffffffffffffffffffffff16815260200190815260200160002054905082811015610691576040517f08c379a000000000000000000000000000000000000000000000000000000000815260040161068890611c44565b60405180910390fd5b6106ae8561069d610cea565b85846106a99190611df3565b610cf2565b60019150509392505050565b60006012905090565b60006107656106d0610cea565b8484600160006106de610cea565b73ffffffffffffffffffffffffffffffffffffffff1673ffffffffffffffffffffffffffffffffffffffff16815260200190815260200160002060008873ffffffffffffffffffffffffffffffffffffffff1673ffffffffffffffffffffffffffffffffffffffff168152602001908152602001600020546107609190611d9d565b610cf2565b6001905092915050565b60095481565b610786610780610cea565b8261113c565b50565b60075481565b60008060008373ffffffffffffffffffffffffffffffffffffffff1673ffffffffffffffffffffffffffffffffffffffff168152602001908152602001600020549050919050565b60006107ea836107e5610cea565b610bad565b90508181101561082f576040517f08c379a000000000000000000000000000000000000000000000000000000000815260040161082690611c64565b60405180910390fd5b61084c8361083b610cea565b84846108479190611df3565b610cf2565b610856838361113c565b505050565b7f000000000000000000000000000000000000000000000000000000000000000073ffffffffffffffffffffffffffffffffffffffff163373ffffffffffffffffffffffffffffffffffffffff16146108e9576040517f08c379a00000000000000000000000000000000000000000000000000000000081526004016108e090611c84565b60405180910390fd5b6108f38282611310565b5050565b60606004805461090690611eb9565b80601f016020809104026020016040519081016040528092919081815260200182805461093290611eb9565b801561097f5780601f106109545761010080835404028352916020019161097f565b820191906000526020600020905b81548152906001019060200180831161096257829003601f168201915b5050505050905090565b60001515600560003373ffffffffffffffffffffffffffffffffffffffff1673ffffffffffffffffffffffffffffffffffffffff16815260200190815260200160002060009054906101000a900460ff16151514610a1c576040517f08c379a0000000000000000000000000000000000000000000000000000000008152600401610a1390611ba4565b60405180910390fd5b610a2930336103e8610ebd565b6001600560003373ffffffffffffffffffffffffffffffffffffffff1673ffffffffffffffffffffffffffffffffffffffff16815260200190815260200160002060006101000a81548160ff021916908315150217905550565b60008060016000610a92610cea565b73ffffffffffffffffffffffffffffffffffffffff1673ffffffffffffffffffffffffffffffffffffffff16815260200190815260200160002060008573ffffffffffffffffffffffffffffffffffffffff1673ffffffffffffffffffffffffffffffffffffffff16815260200190815260200160002054905082811015610b4f576040517f08c379a0000000000000000000000000000000000000000000000000000000008152600401610b4690611d04565b60405180910390fd5b610b6c610b5a610cea565b858584610b679190611df3565b610cf2565b600191505092915050565b6000610b8b610b84610cea565b8484610ebd565b6001905092915050565b6000610ba66007546008548461131b565b9050919050565b6000600160008473ffffffffffffffffffffffffffffffffffffffff1673ffffffffffffffffffffffffffffffffffffffff16815260200190815260200160002060008373ffffffffffffffffffffffffffffffffffffffff1673ffffffffffffffffffffffffffffffffffffffff16815260200190815260200160002054905092915050565b60085481565b60003373ffffffffffffffffffffffffffffffffffffffff1682604051610c6090611a4b565b60006040518083038185875af1925050503d8060008114610c9d576040519150601f19603f3d011682016040523d82523d6000602084013e610ca2565b606091505b5050905080610ce6576040517f08c379a0000000000000000000000000000000000000000000000000000000008152600401610cdd90611c24565b60405180910390fd5b5050565b600033905090565b600073ffffffffffffffffffffffffffffffffffffffff168373ffffffffffffffffffffffffffffffffffffffff161415610d62576040517f08c379a0000000000000000000000000000000000000000000000000000000008152600401610d5990611ce4565b60405180910390fd5b600073ffffffffffffffffffffffffffffffffffffffff168273ffffffffffffffffffffffffffffffffffffffff161415610dd2576040517f08c379a0000000000000000000000000000000000000000000000000000000008152600401610dc990611bc4565b60405180910390fd5b80600160008573ffffffffffffffffffffffffffffffffffffffff1673ffffffffffffffffffffffffffffffffffffffff16815260200190815260200160002060008473ffffffffffffffffffffffffffffffffffffffff1673ffffffffffffffffffffffffffffffffffffffff168152602001908152602001600020819055508173ffffffffffffffffffffffffffffffffffffffff168373ffffffffffffffffffffffffffffffffffffffff167f8c5be1e5ebec7d5bd14f71427d1e84f3dd0314c0f7b2291e5b200ac8c7c3b92583604051610eb09190611d24565b60405180910390a3505050565b600073ffffffffffffffffffffffffffffffffffffffff168373ffffffffffffffffffffffffffffffffffffffff161415610f2d576040517f08c379a0000000000000000000000000000000000000000000000000000000008152600401610f2490611cc4565b60405180910390fd5b600073ffffffffffffffffffffffffffffffffffffffff168273ffffffffffffffffffffffffffffffffffffffff161415610f9d576040517f08c379a0000000000000000000000000000000000000000000000000000000008152600401610f9490611b64565b60405180910390fd5b610fa8838383611483565b60008060008573ffffffffffffffffffffffffffffffffffffffff1673ffffffffffffffffffffffffffffffffffffffff1681526020019081526020016000205490508181101561102e576040517f08c379a000000000000000000000000000000000000000000000000000000000815260040161102590611c04565b60405180910390fd5b818161103a9190611df3565b6000808673ffffffffffffffffffffffffffffffffffffffff1673ffffffffffffffffffffffffffffffffffffffff16815260200190815260200160002081905550816000808573ffffffffffffffffffffffffffffffffffffffff1673ffffffffffffffffffffffffffffffffffffffff16815260200190815260200160002060008282546110ca9190611d9d565b925050819055508273ffffffffffffffffffffffffffffffffffffffff168473ffffffffffffffffffffffffffffffffffffffff167fddf252ad1be2c89b69c2b068fc378daa952ba7f163c4a11628f55a4df523b3ef8460405161112e9190611d24565b60405180910390a350505050565b600073ffffffffffffffffffffffffffffffffffffffff168273ffffffffffffffffffffffffffffffffffffffff1614156111ac576040517f08c379a00000000000000000000000000000000000000000000000000000000081526004016111a390611ca4565b60405180910390fd5b6111b882600083611483565b60008060008473ffffffffffffffffffffffffffffffffffffffff1673ffffffffffffffffffffffffffffffffffffffff1681526020019081526020016000205490508181101561123e576040517f08c379a000000000000000000000000000000000000000000000000000000000815260040161123590611b84565b60405180910390fd5b818161124a9190611df3565b6000808573ffffffffffffffffffffffffffffffffffffffff1673ffffffffffffffffffffffffffffffffffffffff16815260200190815260200160002081905550816002600082825461129e9190611df3565b92505081905550600073ffffffffffffffffffffffffffffffffffffffff168373ffffffffffffffffffffffffffffffffffffffff167fddf252ad1be2c89b69c2b068fc378daa952ba7f163c4a11628f55a4df523b3ef846040516113039190611d24565b60405180910390a3505050565b806009819055505050565b60007f000000000000000000000000000000000000000000000000000000000000000073ffffffffffffffffffffffffffffffffffffffff16634000aea07f000000000000000000000000000000000000000000000000000000000000000085878660405160200161138e929190611ad4565b6040516020818303038152906040526040518463ffffffff1660e01b81526004016113bb93929190611a60565b602060405180830381600087803b1580156113d557600080fd5b505af11580156113e9573d6000803e3d6000fd5b505050506040513d601f19601f8201168201806040525081019061140d9190611699565b50600061142f858430600660008a815260200190815260200160002054611488565b9050611458600160066000888152602001908152602001600020546114c490919063ffffffff16565b60066000878152602001908152602001600020819055506114798582611522565b9150509392505050565b505050565b6000848484846040516020016114a19493929190611afd565b6040516020818303038152906040528051906020012060001c9050949350505050565b60008082846114d39190611d9d565b905083811015611518576040517f08c379a000000000000000000000000000000000000000000000000000000000815260040161150f90611be4565b60405180910390fd5b8091505092915050565b60008282604051602001611537929190611a1f565b60405160208183030381529060405280519060200120905092915050565b60008135905061156481612377565b92915050565b6000815190506115798161238e565b92915050565b60008135905061158e816123a5565b92915050565b6000813590506115a3816123bc565b92915050565b6000602082840312156115bb57600080fd5b60006115c984828501611555565b91505092915050565b600080604083850312156115e557600080fd5b60006115f385828601611555565b925050602061160485828601611555565b9150509250929050565b60008060006060848603121561162357600080fd5b600061163186828701611555565b935050602061164286828701611555565b925050604061165386828701611594565b9150509250925092565b6000806040838503121561167057600080fd5b600061167e85828601611555565b925050602061168f85828601611594565b9150509250929050565b6000602082840312156116ab57600080fd5b60006116b98482850161156a565b91505092915050565b600080604083850312156116d557600080fd5b60006116e38582860161157f565b92505060206116f485828601611594565b9150509250929050565b60006020828403121561171057600080fd5b600061171e84828501611594565b91505092915050565b61173081611e27565b82525050565b61173f81611e39565b82525050565b61174e81611e45565b82525050565b61176561176082611e45565b611eeb565b82525050565b600061177682611d5a565b6117808185611d70565b9350611790818560208601611e86565b61179981611f5d565b840191505092915050565b60006117af82611d65565b6117b98185611d8c565b93506117c9818560208601611e86565b6117d281611f5d565b840191505092915050565b60006117ea602383611d8c565b91506117f582611f6e565b604082019050919050565b600061180d602283611d8c565b915061181882611fbd565b604082019050919050565b6000611830602183611d8c565b915061183b8261200c565b604082019050919050565b6000611853602283611d8c565b915061185e8261205b565b604082019050919050565b6000611876601b83611d8c565b9150611881826120aa565b602082019050919050565b6000611899602683611d8c565b91506118a4826120d3565b604082019050919050565b60006118bc602783611d8c565b91506118c782612122565b604082019050919050565b60006118df602883611d8c565b91506118ea82612171565b604082019050919050565b6000611902602483611d8c565b915061190d826121c0565b604082019050919050565b6000611925601f83611d8c565b91506119308261220f565b602082019050919050565b6000611948602183611d8c565b915061195382612238565b604082019050919050565b600061196b602583611d8c565b915061197682612287565b604082019050919050565b600061198e600083611d81565b9150611999826122d6565b600082019050919050565b60006119b1602483611d8c565b91506119bc826122d9565b604082019050919050565b60006119d4602583611d8c565b91506119df82612328565b604082019050919050565b6119f381611e6f565b82525050565b611a0a611a0582611e6f565b611ef5565b82525050565b611a1981611e79565b82525050565b6000611a2b8285611754565b602082019150611a3b82846119f9565b6020820191508190509392505050565b6000611a5682611981565b9150819050919050565b6000606082019050611a756000830186611727565b611a8260208301856119ea565b8181036040830152611a94818461176b565b9050949350505050565b6000602082019050611ab36000830184611736565b92915050565b6000602082019050611ace6000830184611745565b92915050565b6000604082019050611ae96000830185611745565b611af660208301846119ea565b9392505050565b6000608082019050611b126000830187611745565b611b1f60208301866119ea565b611b2c6040830185611727565b611b3960608301846119ea565b95945050505050565b60006020820190508181036000830152611b5c81846117a4565b905092915050565b60006020820190508181036000830152611b7d816117dd565b9050919050565b60006020820190508181036000830152611b9d81611800565b9050919050565b60006020820190508181036000830152611bbd81611823565b9050919050565b60006020820190508181036000830152611bdd81611846565b9050919050565b60006020820190508181036000830152611bfd81611869565b9050919050565b60006020820190508181036000830152611c1d8161188c565b9050919050565b60006020820190508181036000830152611c3d816118af565b9050919050565b60006020820190508181036000830152611c5d816118d2565b9050919050565b60006020820190508181036000830152611c7d816118f5565b9050919050565b60006020820190508181036000830152611c9d81611918565b9050919050565b60006020820190508181036000830152611cbd8161193b565b9050919050565b60006020820190508181036000830152611cdd8161195e565b9050919050565b60006020820190508181036000830152611cfd816119a4565b9050919050565b60006020820190508181036000830152611d1d816119c7565b9050919050565b6000602082019050611d3960008301846119ea565b92915050565b6000602082019050611d546000830184611a10565b92915050565b600081519050919050565b600081519050919050565b600082825260208201905092915050565b600081905092915050565b600082825260208201905092915050565b6000611da882611e6f565b9150611db383611e6f565b9250827fffffffffffffffffffffffffffffffffffffffffffffffffffffffffffffffff03821115611de857611de7611eff565b5b828201905092915050565b6000611dfe82611e6f565b9150611e0983611e6f565b925082821015611e1c57611e1b611eff565b5b828203905092915050565b6000611e3282611e4f565b9050919050565b60008115159050919050565b6000819050919050565b600073ffffffffffffffffffffffffffffffffffffffff82169050919050565b6000819050919050565b600060ff82169050919050565b60005b83811015611ea4578082015181840152602081019050611e89565b83811115611eb3576000848401525b50505050565b60006002820490506001821680611ed157607f821691505b60208210811415611ee557611ee4611f2e565b5b50919050565b6000819050919050565b6000819050919050565b7f4e487b7100000000000000000000000000000000000000000000000000000000600052601160045260246000fd5b7f4e487b7100000000000000000000000000000000000000000000000000000000600052602260045260246000fd5b6000601f19601f8301169050919050565b7f45524332303a207472616e7366657220746f20746865207a65726f206164647260008201527f6573730000000000000000000000000000000000000000000000000000000000602082015250565b7f45524332303a206275726e20616d6f756e7420657863656564732062616c616e60008201527f6365000000000000000000000000000000000000000000000000000000000000602082015250565b7f596f752063616e206f6e6c79207265717565737420546f6b656e73206f6e636560008201527f2100000000000000000000000000000000000000000000000000000000000000602082015250565b7f45524332303a20617070726f766520746f20746865207a65726f20616464726560008201527f7373000000000000000000000000000000000000000000000000000000000000602082015250565b7f536166654d6174683a206164646974696f6e206f766572666c6f770000000000600082015250565b7f45524332303a207472616e7366657220616d6f756e742065786365656473206260008201527f616c616e63650000000000000000000000000000000000000000000000000000602082015250565b7f4661696c656420746f207472616e73666572207468652066756e64732c20616260008201527f6f7274696e672e00000000000000000000000000000000000000000000000000602082015250565b7f45524332303a207472616e7366657220616d6f756e742065786365656473206160008201527f6c6c6f77616e6365000000000000000000000000000000000000000000000000602082015250565b7f45524332303a206275726e20616d6f756e74206578636565647320616c6c6f7760008201527f616e636500000000000000000000000000000000000000000000000000000000602082015250565b7f4f6e6c7920565246436f6f7264696e61746f722063616e2066756c66696c6c00600082015250565b7f45524332303a206275726e2066726f6d20746865207a65726f2061646472657360008201527f7300000000000000000000000000000000000000000000000000000000000000602082015250565b7f45524332303a207472616e736665722066726f6d20746865207a65726f20616460008201527f6472657373000000000000000000000000000000000000000000000000000000602082015250565b50565b7f45524332303a20617070726f76652066726f6d20746865207a65726f2061646460008201527f7265737300000000000000000000000000000000000000000000000000000000602082015250565b7f45524332303a2064656372656173656420616c6c6f77616e63652062656c6f7760008201527f207a65726f000000000000000000000000000000000000000000000000000000602082015250565b61238081611e27565b811461238b57600080fd5b50565b61239781611e39565b81146123a257600080fd5b50565b6123ae81611e45565b81146123b957600080fd5b50565b6123c581611e6f565b81146123d057600080fd5b5056fea2646970667358221220d2befd87c7d3d98f4d63064be5934bebe27ed7083067961a4281592680a028c564736f6c63430008040033",
  "immutableReferences": {
    "187": [
      {
        "length": 32,
        "start": 4895
      }
    ],
    "189": [
      {
        "length": 32,
        "start": 2141
      },
      {
        "length": 32,
        "start": 4955
      }
    ]
  },
  "source": "pragma solidity ^0.8.0;\r\n\r\nimport \"../node_modules/@openzeppelin/contracts/token/ERC20/ERC20.sol\";\r\nimport \"../node_modules/@openzeppelin/contracts/token/ERC20/presets/ERC20PresetFixedSupply.sol\";\r\nimport \"./VRFConsumerBase.sol\";\r\n\r\ncontract MyTestNetToken is ERC20, ERC20PresetFixedSupply, VRFConsumerBase {\r\n\r\n    bytes32 public keyHash; //Identifies which oracle is to be used for\r\n    uint256 public fee; //Fee to be send\r\n    uint256 public randomResult; \r\n    address vrfCoordinatorMumbai = 0x8C7382F9D8f56b33781fE506E897a4F1e2d17255;\r\n    address linkOnMumbai = 0x326C977E6efc84E512bB9C30f76E30c160eD06FB;\r\n\r\n   \r\n\r\n\r\nconstructor(\r\n    string memory name, \r\n    string memory symbol, \r\n    uint256 initialSupply, \r\n    address payable owner\r\n     ) ERC20PresetFixedSupply(\"MyTestNetToken\", \"MTNT\", 1000000000000000000000000, msg.sender) \r\n       VRFConsumerBase (vrfCoordinatorMumbai, linkOnMumbai)\r\n    {\r\n        keyHash = 0x6e75b569a01ef56d18cab6a8e71e6600d6ce853834d4a5748b720d06f878b3a4;\r\n        fee = 0.1 * 10 ** 18; //0.1 LINK \r\n    }\r\n\r\nfunction getRandomNumber (uint256 userProvidedSeed) public returns(bytes32 requestId) {\r\n    return requestRandomness(keyHash, fee, userProvidedSeed);\r\n}\r\n\r\nfunction fulfillRandomness(bytes32 requestId, uint256 randomness) internal override {\r\n    randomResult = randomness;\r\n}\r\n\r\nfunction payout(uint256 amount) public {\r\n    (bool success, ) = msg.sender.call{value: amount}(\"\");\r\n    require(success, \"Failed to transfer the funds, aborting.\");\r\n}\r\n\r\n    receive() external payable {\r\n\r\n    }\r\n\r\n\r\n}",
  "sourcePath": "D:/solidity/erc20/contracts/MyTestNetToken.sol",
  "compiler": {
    "name": "solc",
    "version": "0.8.4+commit.c7e474f2.Emscripten.clang"
  },
  "schemaVersion": "3.4.1",
  "updatedAt": "2021-05-12T07:16:05.076Z",
  "networkType": "ethereum",
  "devdoc": {
    "kind": "dev",
    "methods": {
      "allowance(address,address)": {
        "details": "See {IERC20-allowance}."
      },
      "approve(address,uint256)": {
        "details": "See {IERC20-approve}. Requirements: - `spender` cannot be the zero address."
      },
      "balanceOf(address)": {
        "details": "See {IERC20-balanceOf}."
      },
      "burn(uint256)": {
        "details": "Destroys `amount` tokens from the caller. See {ERC20-_burn}."
      },
      "burnFrom(address,uint256)": {
        "details": "Destroys `amount` tokens from `account`, deducting from the caller's allowance. See {ERC20-_burn} and {ERC20-allowance}. Requirements: - the caller must have allowance for ``accounts``'s tokens of at least `amount`."
      },
      "decimals()": {
        "details": "Returns the number of decimals used to get its user representation. For example, if `decimals` equals `2`, a balance of `505` tokens should be displayed to a user as `5,05` (`505 / 10 ** 2`). Tokens usually opt for a value of 18, imitating the relationship between Ether and Wei. This is the value {ERC20} uses, unless this function is overridden; NOTE: This information is only used for _display_ purposes: it in no way affects any of the arithmetic of the contract, including {IERC20-balanceOf} and {IERC20-transfer}."
      },
      "decreaseAllowance(address,uint256)": {
        "details": "Atomically decreases the allowance granted to `spender` by the caller. This is an alternative to {approve} that can be used as a mitigation for problems described in {IERC20-approve}. Emits an {Approval} event indicating the updated allowance. Requirements: - `spender` cannot be the zero address. - `spender` must have allowance for the caller of at least `subtractedValue`."
      },
      "increaseAllowance(address,uint256)": {
        "details": "Atomically increases the allowance granted to `spender` by the caller. This is an alternative to {approve} that can be used as a mitigation for problems described in {IERC20-approve}. Emits an {Approval} event indicating the updated allowance. Requirements: - `spender` cannot be the zero address."
      },
      "name()": {
        "details": "Returns the name of the token."
      },
      "symbol()": {
        "details": "Returns the symbol of the token, usually a shorter version of the name."
      },
      "totalSupply()": {
        "details": "See {IERC20-totalSupply}."
      },
      "transfer(address,uint256)": {
        "details": "See {IERC20-transfer}. Requirements: - `recipient` cannot be the zero address. - the caller must have a balance of at least `amount`."
      },
      "transferFrom(address,address,uint256)": {
        "details": "See {IERC20-transferFrom}. Emits an {Approval} event indicating the updated allowance. This is not required by the EIP. See the note at the beginning of {ERC20}. Requirements: - `sender` and `recipient` cannot be the zero address. - `sender` must have a balance of at least `amount`. - the caller must have allowance for ``sender``'s tokens of at least `amount`."
      }
    },
    "version": 1
  },
  "userdoc": {
    "kind": "user",
    "methods": {},
    "version": 1
  }
}