{
  "contractName": "MyTestNetToken",
  "abi": [
    {
      "inputs": [
        {
          "internalType": "string",
          "name": "name",
          "type": "string"
        },
        {
          "internalType": "string",
          "name": "symbol",
          "type": "string"
        },
        {
          "internalType": "uint256",
          "name": "initialSupply",
          "type": "uint256"
        },
        {
          "internalType": "address payable",
          "name": "owner",
          "type": "address"
        }
      ],
      "stateMutability": "nonpayable",
      "type": "constructor"
    },
    {
      "anonymous": false,
      "inputs": [
        {
          "indexed": true,
          "internalType": "address",
          "name": "owner",
          "type": "address"
        },
        {
          "indexed": true,
          "internalType": "address",
          "name": "spender",
          "type": "address"
        },
        {
          "indexed": false,
          "internalType": "uint256",
          "name": "value",
          "type": "uint256"
        }
      ],
      "name": "Approval",
      "type": "event"
    },
    {
      "anonymous": false,
      "inputs": [
        {
          "indexed": true,
          "internalType": "address",
          "name": "from",
          "type": "address"
        },
        {
          "indexed": true,
          "internalType": "address",
          "name": "to",
          "type": "address"
        },
        {
          "indexed": false,
          "internalType": "uint256",
          "name": "value",
          "type": "uint256"
        }
      ],
      "name": "Transfer",
      "type": "event"
    },
    {
      "inputs": [
        {
          "internalType": "address",
          "name": "owner",
          "type": "address"
        },
        {
          "internalType": "address",
          "name": "spender",
          "type": "address"
        }
      ],
      "name": "allowance",
      "outputs": [
        {
          "internalType": "uint256",
          "name": "",
          "type": "uint256"
        }
      ],
      "stateMutability": "view",
      "type": "function",
      "constant": true
    },
    {
      "inputs": [
        {
          "internalType": "address",
          "name": "spender",
          "type": "address"
        },
        {
          "internalType": "uint256",
          "name": "amount",
          "type": "uint256"
        }
      ],
      "name": "approve",
      "outputs": [
        {
          "internalType": "bool",
          "name": "",
          "type": "bool"
        }
      ],
      "stateMutability": "nonpayable",
      "type": "function"
    },
    {
      "inputs": [
        {
          "internalType": "address",
          "name": "account",
          "type": "address"
        }
      ],
      "name": "balanceOf",
      "outputs": [
        {
          "internalType": "uint256",
          "name": "",
          "type": "uint256"
        }
      ],
      "stateMutability": "view",
      "type": "function",
      "constant": true
    },
    {
      "inputs": [
        {
          "internalType": "uint256",
          "name": "amount",
          "type": "uint256"
        }
      ],
      "name": "burn",
      "outputs": [],
      "stateMutability": "nonpayable",
      "type": "function"
    },
    {
      "inputs": [
        {
          "internalType": "address",
          "name": "account",
          "type": "address"
        },
        {
          "internalType": "uint256",
          "name": "amount",
          "type": "uint256"
        }
      ],
      "name": "burnFrom",
      "outputs": [],
      "stateMutability": "nonpayable",
      "type": "function"
    },
    {
      "inputs": [],
      "name": "decimals",
      "outputs": [
        {
          "internalType": "uint8",
          "name": "",
          "type": "uint8"
        }
      ],
      "stateMutability": "view",
      "type": "function",
      "constant": true
    },
    {
      "inputs": [
        {
          "internalType": "address",
          "name": "spender",
          "type": "address"
        },
        {
          "internalType": "uint256",
          "name": "subtractedValue",
          "type": "uint256"
        }
      ],
      "name": "decreaseAllowance",
      "outputs": [
        {
          "internalType": "bool",
          "name": "",
          "type": "bool"
        }
      ],
      "stateMutability": "nonpayable",
      "type": "function"
    },
    {
      "inputs": [],
      "name": "fee",
      "outputs": [
        {
          "internalType": "uint256",
          "name": "",
          "type": "uint256"
        }
      ],
      "stateMutability": "view",
      "type": "function",
      "constant": true
    },
    {
      "inputs": [
        {
          "internalType": "address",
          "name": "spender",
          "type": "address"
        },
        {
          "internalType": "uint256",
          "name": "addedValue",
          "type": "uint256"
        }
      ],
      "name": "increaseAllowance",
      "outputs": [
        {
          "internalType": "bool",
          "name": "",
          "type": "bool"
        }
      ],
      "stateMutability": "nonpayable",
      "type": "function"
    },
    {
      "inputs": [],
      "name": "keyHash",
      "outputs": [
        {
          "internalType": "bytes32",
          "name": "",
          "type": "bytes32"
        }
      ],
      "stateMutability": "view",
      "type": "function",
      "constant": true
    },
    {
      "inputs": [],
      "name": "name",
      "outputs": [
        {
          "internalType": "string",
          "name": "",
          "type": "string"
        }
      ],
      "stateMutability": "view",
      "type": "function",
      "constant": true
    },
    {
      "inputs": [],
      "name": "payToken",
      "outputs": [],
      "stateMutability": "nonpayable",
      "type": "function"
    },
    {
      "inputs": [],
      "name": "randomResult",
      "outputs": [
        {
          "internalType": "uint256",
          "name": "",
          "type": "uint256"
        }
      ],
      "stateMutability": "view",
      "type": "function",
      "constant": true
    },
    {
      "inputs": [
        {
          "internalType": "bytes32",
          "name": "requestId",
          "type": "bytes32"
        },
        {
          "internalType": "uint256",
          "name": "randomness",
          "type": "uint256"
        }
      ],
      "name": "rawFulfillRandomness",
      "outputs": [],
      "stateMutability": "nonpayable",
      "type": "function"
    },
    {
      "inputs": [
        {
          "internalType": "address",
          "name": "",
          "type": "address"
        }
      ],
      "name": "rewardGranted",
      "outputs": [
        {
          "internalType": "bool",
          "name": "",
          "type": "bool"
        }
      ],
      "stateMutability": "view",
      "type": "function",
      "constant": true
    },
    {
      "inputs": [],
      "name": "setRewardGranted",
      "outputs": [],
      "stateMutability": "nonpayable",
      "type": "function"
    },
    {
      "inputs": [],
      "name": "symbol",
      "outputs": [
        {
          "internalType": "string",
          "name": "",
          "type": "string"
        }
      ],
      "stateMutability": "view",
      "type": "function",
      "constant": true
    },
    {
      "inputs": [
        {
          "internalType": "address",
          "name": "",
          "type": "address"
        }
      ],
      "name": "tokenRequested",
      "outputs": [
        {
          "internalType": "bool",
          "name": "",
          "type": "bool"
        }
      ],
      "stateMutability": "view",
      "type": "function",
      "constant": true
    },
    {
      "inputs": [],
      "name": "tokenReward",
      "outputs": [],
      "stateMutability": "nonpayable",
      "type": "function"
    },
    {
      "inputs": [],
      "name": "totalSupply",
      "outputs": [
        {
          "internalType": "uint256",
          "name": "",
          "type": "uint256"
        }
      ],
      "stateMutability": "view",
      "type": "function",
      "constant": true
    },
    {
      "inputs": [
        {
          "internalType": "address",
          "name": "recipient",
          "type": "address"
        },
        {
          "internalType": "uint256",
          "name": "amount",
          "type": "uint256"
        }
      ],
      "name": "transfer",
      "outputs": [
        {
          "internalType": "bool",
          "name": "",
          "type": "bool"
        }
      ],
      "stateMutability": "nonpayable",
      "type": "function"
    },
    {
      "inputs": [
        {
          "internalType": "address",
          "name": "sender",
          "type": "address"
        },
        {
          "internalType": "address",
          "name": "recipient",
          "type": "address"
        },
        {
          "internalType": "uint256",
          "name": "amount",
          "type": "uint256"
        }
      ],
      "name": "transferFrom",
      "outputs": [
        {
          "internalType": "bool",
          "name": "",
          "type": "bool"
        }
      ],
      "stateMutability": "nonpayable",
      "type": "function"
    },
    {
      "stateMutability": "payable",
      "type": "receive",
      "payable": true
    },
    {
      "inputs": [
        {
          "internalType": "uint256",
          "name": "userProvidedSeed",
          "type": "uint256"
        }
      ],
      "name": "getRandomNumber",
      "outputs": [
        {
          "internalType": "bytes32",
          "name": "requestId",
          "type": "bytes32"
        }
      ],
      "stateMutability": "nonpayable",
      "type": "function"
    },
    {
      "inputs": [
        {
          "internalType": "uint256",
          "name": "amount",
          "type": "uint256"
        }
      ],
      "name": "payout",
      "outputs": [],
      "stateMutability": "nonpayable",
      "type": "function"
    }
  ],
  "bytecode": "0x60c0604052738c7382f9d8f56b33781fe506e897a4f1e2d17255600b60006101000a81548173ffffffffffffffffffffffffffffffffffffffff021916908373ffffffffffffffffffffffffffffffffffffffff16021790555073326c977e6efc84e512bb9c30f76e30c160ed06fb600c60006101000a81548173ffffffffffffffffffffffffffffffffffffffff021916908373ffffffffffffffffffffffffffffffffffffffff160217905550348015620000bb57600080fd5b50604051620031d3380380620031d38339818101604052810190620000e1919062000608565b600b60009054906101000a900473ffffffffffffffffffffffffffffffffffffffff16600c60009054906101000a900473ffffffffffffffffffffffffffffffffffffffff166040518060400160405280600e81526020017f4d79546573744e6574546f6b656e0000000000000000000000000000000000008152506040518060400160405280600481526020017f4d544e540000000000000000000000000000000000000000000000000000000081525069d3c21bcecceda10000003383838160039080519060200190620001b9929190620004b8565b508060049080519060200190620001d2929190620004b8565b506000600560003373ffffffffffffffffffffffffffffffffffffffff1673ffffffffffffffffffffffffffffffffffffffff16815260200190815260200160002060006101000a81548160ff0219169083151502179055506000600660003373ffffffffffffffffffffffffffffffffffffffff1673ffffffffffffffffffffffffffffffffffffffff16815260200190815260200160002060006101000a81548160ff02191690831515021790555050506200029781836200034e60201b60201c565b505050508173ffffffffffffffffffffffffffffffffffffffff1660a08173ffffffffffffffffffffffffffffffffffffffff1660601b815250508073ffffffffffffffffffffffffffffffffffffffff1660808173ffffffffffffffffffffffffffffffffffffffff1660601b8152505050507f6e75b569a01ef56d18cab6a8e71e6600d6ce853834d4a5748b720d06f878b3a460001b60088190555067016345785d8a000060098190555050505050620009c5565b600073ffffffffffffffffffffffffffffffffffffffff168273ffffffffffffffffffffffffffffffffffffffff161415620003c1576040517f08c379a0000000000000000000000000000000000000000000000000000000008152600401620003b890620006de565b60405180910390fd5b620003d560008383620004b360201b60201c565b8060026000828254620003e991906200078d565b92505081905550806000808473ffffffffffffffffffffffffffffffffffffffff1673ffffffffffffffffffffffffffffffffffffffff16815260200190815260200160002060008282546200044091906200078d565b925050819055508173ffffffffffffffffffffffffffffffffffffffff16600073ffffffffffffffffffffffffffffffffffffffff167fddf252ad1be2c89b69c2b068fc378daa952ba7f163c4a11628f55a4df523b3ef83604051620004a7919062000700565b60405180910390a35050565b505050565b828054620004c6906200085e565b90600052602060002090601f016020900481019282620004ea576000855562000536565b82601f106200050557805160ff191683800117855562000536565b8280016001018555821562000536579182015b828111156200053557825182559160200191906001019062000518565b5b50905062000545919062000549565b5090565b5b80821115620005645760008160009055506001016200054a565b5090565b60006200057f620005798462000746565b6200071d565b9050828152602081018484840111156200059857600080fd5b620005a584828562000828565b509392505050565b600081519050620005be8162000991565b92915050565b600082601f830112620005d657600080fd5b8151620005e884826020860162000568565b91505092915050565b6000815190506200060281620009ab565b92915050565b600080600080608085870312156200061f57600080fd5b600085015167ffffffffffffffff8111156200063a57600080fd5b6200064887828801620005c4565b945050602085015167ffffffffffffffff8111156200066657600080fd5b6200067487828801620005c4565b93505060406200068787828801620005f1565b92505060606200069a87828801620005ad565b91505092959194509250565b6000620006b5601f836200077c565b9150620006c28262000968565b602082019050919050565b620006d8816200081e565b82525050565b60006020820190508181036000830152620006f981620006a6565b9050919050565b6000602082019050620007176000830184620006cd565b92915050565b6000620007296200073c565b905062000737828262000894565b919050565b6000604051905090565b600067ffffffffffffffff82111562000764576200076362000928565b5b6200076f8262000957565b9050602081019050919050565b600082825260208201905092915050565b60006200079a826200081e565b9150620007a7836200081e565b9250827fffffffffffffffffffffffffffffffffffffffffffffffffffffffffffffffff03821115620007df57620007de620008ca565b5b828201905092915050565b6000620007f782620007fe565b9050919050565b600073ffffffffffffffffffffffffffffffffffffffff82169050919050565b6000819050919050565b60005b83811015620008485780820151818401526020810190506200082b565b8381111562000858576000848401525b50505050565b600060028204905060018216806200087757607f821691505b602082108114156200088e576200088d620008f9565b5b50919050565b6200089f8262000957565b810181811067ffffffffffffffff82111715620008c157620008c062000928565b5b80604052505050565b7f4e487b7100000000000000000000000000000000000000000000000000000000600052601160045260246000fd5b7f4e487b7100000000000000000000000000000000000000000000000000000000600052602260045260246000fd5b7f4e487b7100000000000000000000000000000000000000000000000000000000600052604160045260246000fd5b6000601f19601f8301169050919050565b7f45524332303a206d696e7420746f20746865207a65726f206164647265737300600082015250565b6200099c81620007ea565b8114620009a857600080fd5b50565b620009b6816200081e565b8114620009c257600080fd5b50565b60805160601c60a05160601c6127db620009f860003960008181610a6a01526116550152600061161901526127db6000f3fe60806040526004361061014f5760003560e01c806370a08231116100b6578063a9059cbb1161006f578063a9059cbb146104b1578063b37217a4146104ee578063c41f5b351461052b578063dd62ed3e14610542578063ddca3f431461057f578063e1152343146105aa57610156565b806370a08231146103a357806379cc6790146103e057806394985ddd1461040957806395d89b411461043257806396336b301461045d578063a457c2d71461047457610156565b80634171b22e116101085780634171b22e14610293578063417e4b69146102d057806342619f661461030d57806342966c681461033857806361728f39146103615780636e66f6e91461038c57610156565b806306fdde031461015b578063095ea7b31461018657806318160ddd146101c357806323b872dd146101ee578063313ce5671461022b578063395093511461025657610156565b3661015657005b600080fd5b34801561016757600080fd5b506101706105d3565b60405161017d9190611e82565b60405180910390f35b34801561019257600080fd5b506101ad60048036038101906101a89190611957565b610665565b6040516101ba9190611dde565b60405180910390f35b3480156101cf57600080fd5b506101d8610683565b6040516101e591906120a4565b60405180910390f35b3480156101fa57600080fd5b5061021560048036038101906102109190611908565b61068d565b6040516102229190611dde565b60405180910390f35b34801561023757600080fd5b5061024061078e565b60405161024d91906120bf565b60405180910390f35b34801561026257600080fd5b5061027d60048036038101906102789190611957565b610797565b60405161028a9190611dde565b60405180910390f35b34801561029f57600080fd5b506102ba60048036038101906102b591906118a3565b610843565b6040516102c79190611dde565b60405180910390f35b3480156102dc57600080fd5b506102f760048036038101906102f291906118a3565b610863565b6040516103049190611dde565b60405180910390f35b34801561031957600080fd5b50610322610883565b60405161032f91906120a4565b60405180910390f35b34801561034457600080fd5b5061035f600480360381019061035a91906119f8565b610889565b005b34801561036d57600080fd5b5061037661089d565b6040516103839190611df9565b60405180910390f35b34801561039857600080fd5b506103a16108a3565b005b3480156103af57600080fd5b506103ca60048036038101906103c591906118a3565b61099c565b6040516103d791906120a4565b60405180910390f35b3480156103ec57600080fd5b5061040760048036038101906104029190611957565b6109e4565b005b34801561041557600080fd5b50610430600480360381019061042b91906119bc565b610a68565b005b34801561043e57600080fd5b50610447610b04565b6040516104549190611e82565b60405180910390f35b34801561046957600080fd5b50610472610b96565b005b34801561048057600080fd5b5061049b60048036038101906104969190611957565b610c90565b6040516104a89190611dde565b60405180910390f35b3480156104bd57600080fd5b506104d860048036038101906104d39190611957565b610d84565b6040516104e59190611dde565b60405180910390f35b3480156104fa57600080fd5b50610515600480360381019061051091906119f8565b610da2565b6040516105229190611df9565b60405180910390f35b34801561053757600080fd5b50610540610dba565b005b34801561054e57600080fd5b50610569600480360381019061056491906118cc565b610ea7565b60405161057691906120a4565b60405180910390f35b34801561058b57600080fd5b50610594610f2e565b6040516105a191906120a4565b60405180910390f35b3480156105b657600080fd5b506105d160048036038101906105cc91906119f8565b610f34565b005b6060600380546105e290612239565b80601f016020809104026020016040519081016040528092919081815260200182805461060e90612239565b801561065b5780601f106106305761010080835404028352916020019161065b565b820191906000526020600020905b81548152906001019060200180831161063e57829003601f168201915b5050505050905090565b6000610679610672610fe4565b8484610fec565b6001905092915050565b6000600254905090565b600061069a8484846111b7565b6000600160008673ffffffffffffffffffffffffffffffffffffffff1673ffffffffffffffffffffffffffffffffffffffff16815260200190815260200160002060006106e5610fe4565b73ffffffffffffffffffffffffffffffffffffffff1673ffffffffffffffffffffffffffffffffffffffff16815260200190815260200160002054905082811015610765576040517f08c379a000000000000000000000000000000000000000000000000000000000815260040161075c90611fa4565b60405180910390fd5b61078285610771610fe4565b858461077d9190612173565b610fec565b60019150509392505050565b60006012905090565b60006108396107a4610fe4565b8484600160006107b2610fe4565b73ffffffffffffffffffffffffffffffffffffffff1673ffffffffffffffffffffffffffffffffffffffff16815260200190815260200160002060008873ffffffffffffffffffffffffffffffffffffffff1673ffffffffffffffffffffffffffffffffffffffff16815260200190815260200160002054610834919061211d565b610fec565b6001905092915050565b60066020528060005260406000206000915054906101000a900460ff1681565b60056020528060005260406000206000915054906101000a900460ff1681565b600a5481565b61089a610894610fe4565b82611436565b50565b60085481565b60011515600660003373ffffffffffffffffffffffffffffffffffffffff1673ffffffffffffffffffffffffffffffffffffffff16815260200190815260200160002060009054906101000a900460ff16151514610936576040517f08c379a000000000000000000000000000000000000000000000000000000000815260040161092d90612064565b60405180910390fd5b6000600660003373ffffffffffffffffffffffffffffffffffffffff1673ffffffffffffffffffffffffffffffffffffffff16815260200190815260200160002060006101000a81548160ff02191690831515021790555061099a303360646111b7565b565b60008060008373ffffffffffffffffffffffffffffffffffffffff1673ffffffffffffffffffffffffffffffffffffffff168152602001908152602001600020549050919050565b60006109f7836109f2610fe4565b610ea7565b905081811015610a3c576040517f08c379a0000000000000000000000000000000000000000000000000000000008152600401610a3390611fc4565b60405180910390fd5b610a5983610a48610fe4565b8484610a549190612173565b610fec565b610a638383611436565b505050565b7f000000000000000000000000000000000000000000000000000000000000000073ffffffffffffffffffffffffffffffffffffffff163373ffffffffffffffffffffffffffffffffffffffff1614610af6576040517f08c379a0000000000000000000000000000000000000000000000000000000008152600401610aed90611fe4565b60405180910390fd5b610b00828261160a565b5050565b606060048054610b1390612239565b80601f0160208091040260200160405190810160405280929190818152602001828054610b3f90612239565b8015610b8c5780601f10610b6157610100808354040283529160200191610b8c565b820191906000526020600020905b815481529060010190602001808311610b6f57829003601f168201915b5050505050905090565b60001515600560003373ffffffffffffffffffffffffffffffffffffffff1673ffffffffffffffffffffffffffffffffffffffff16815260200190815260200160002060009054906101000a900460ff16151514610c29576040517f08c379a0000000000000000000000000000000000000000000000000000000008152600401610c2090611ee4565b60405180910390fd5b610c3630336103e86111b7565b6001600560003373ffffffffffffffffffffffffffffffffffffffff1673ffffffffffffffffffffffffffffffffffffffff16815260200190815260200160002060006101000a81548160ff021916908315150217905550565b60008060016000610c9f610fe4565b73ffffffffffffffffffffffffffffffffffffffff1673ffffffffffffffffffffffffffffffffffffffff16815260200190815260200160002060008573ffffffffffffffffffffffffffffffffffffffff1673ffffffffffffffffffffffffffffffffffffffff16815260200190815260200160002054905082811015610d5c576040517f08c379a0000000000000000000000000000000000000000000000000000000008152600401610d5390612084565b60405180910390fd5b610d79610d67610fe4565b858584610d749190612173565b610fec565b600191505092915050565b6000610d98610d91610fe4565b84846111b7565b6001905092915050565b6000610db360085460095484611615565b9050919050565b60001515600660003373ffffffffffffffffffffffffffffffffffffffff1673ffffffffffffffffffffffffffffffffffffffff16815260200190815260200160002060009054906101000a900460ff16151514610e4d576040517f08c379a0000000000000000000000000000000000000000000000000000000008152600401610e4490611f04565b60405180910390fd5b6001600660003373ffffffffffffffffffffffffffffffffffffffff1673ffffffffffffffffffffffffffffffffffffffff16815260200190815260200160002060006101000a81548160ff021916908315150217905550565b6000600160008473ffffffffffffffffffffffffffffffffffffffff1673ffffffffffffffffffffffffffffffffffffffff16815260200190815260200160002060008373ffffffffffffffffffffffffffffffffffffffff1673ffffffffffffffffffffffffffffffffffffffff16815260200190815260200160002054905092915050565b60095481565b60003373ffffffffffffffffffffffffffffffffffffffff1682604051610f5a90611d8b565b60006040518083038185875af1925050503d8060008114610f97576040519150601f19603f3d011682016040523d82523d6000602084013e610f9c565b606091505b5050905080610fe0576040517f08c379a0000000000000000000000000000000000000000000000000000000008152600401610fd790611f84565b60405180910390fd5b5050565b600033905090565b600073ffffffffffffffffffffffffffffffffffffffff168373ffffffffffffffffffffffffffffffffffffffff16141561105c576040517f08c379a000000000000000000000000000000000000000000000000000000000815260040161105390612044565b60405180910390fd5b600073ffffffffffffffffffffffffffffffffffffffff168273ffffffffffffffffffffffffffffffffffffffff1614156110cc576040517f08c379a00000000000000000000000000000000000000000000000000000000081526004016110c390611f24565b60405180910390fd5b80600160008573ffffffffffffffffffffffffffffffffffffffff1673ffffffffffffffffffffffffffffffffffffffff16815260200190815260200160002060008473ffffffffffffffffffffffffffffffffffffffff1673ffffffffffffffffffffffffffffffffffffffff168152602001908152602001600020819055508173ffffffffffffffffffffffffffffffffffffffff168373ffffffffffffffffffffffffffffffffffffffff167f8c5be1e5ebec7d5bd14f71427d1e84f3dd0314c0f7b2291e5b200ac8c7c3b925836040516111aa91906120a4565b60405180910390a3505050565b600073ffffffffffffffffffffffffffffffffffffffff168373ffffffffffffffffffffffffffffffffffffffff161415611227576040517f08c379a000000000000000000000000000000000000000000000000000000000815260040161121e90612024565b60405180910390fd5b600073ffffffffffffffffffffffffffffffffffffffff168273ffffffffffffffffffffffffffffffffffffffff161415611297576040517f08c379a000000000000000000000000000000000000000000000000000000000815260040161128e90611ea4565b60405180910390fd5b6112a283838361177d565b60008060008573ffffffffffffffffffffffffffffffffffffffff1673ffffffffffffffffffffffffffffffffffffffff16815260200190815260200160002054905081811015611328576040517f08c379a000000000000000000000000000000000000000000000000000000000815260040161131f90611f64565b60405180910390fd5b81816113349190612173565b6000808673ffffffffffffffffffffffffffffffffffffffff1673ffffffffffffffffffffffffffffffffffffffff16815260200190815260200160002081905550816000808573ffffffffffffffffffffffffffffffffffffffff1673ffffffffffffffffffffffffffffffffffffffff16815260200190815260200160002060008282546113c4919061211d565b925050819055508273ffffffffffffffffffffffffffffffffffffffff168473ffffffffffffffffffffffffffffffffffffffff167fddf252ad1be2c89b69c2b068fc378daa952ba7f163c4a11628f55a4df523b3ef8460405161142891906120a4565b60405180910390a350505050565b600073ffffffffffffffffffffffffffffffffffffffff168273ffffffffffffffffffffffffffffffffffffffff1614156114a6576040517f08c379a000000000000000000000000000000000000000000000000000000000815260040161149d90612004565b60405180910390fd5b6114b28260008361177d565b60008060008473ffffffffffffffffffffffffffffffffffffffff1673ffffffffffffffffffffffffffffffffffffffff16815260200190815260200160002054905081811015611538576040517f08c379a000000000000000000000000000000000000000000000000000000000815260040161152f90611ec4565b60405180910390fd5b81816115449190612173565b6000808573ffffffffffffffffffffffffffffffffffffffff1673ffffffffffffffffffffffffffffffffffffffff1681526020019081526020016000208190555081600260008282546115989190612173565b92505081905550600073ffffffffffffffffffffffffffffffffffffffff168373ffffffffffffffffffffffffffffffffffffffff167fddf252ad1be2c89b69c2b068fc378daa952ba7f163c4a11628f55a4df523b3ef846040516115fd91906120a4565b60405180910390a3505050565b80600a819055505050565b60007f000000000000000000000000000000000000000000000000000000000000000073ffffffffffffffffffffffffffffffffffffffff16634000aea07f0000000000000000000000000000000000000000000000000000000000000000858786604051602001611688929190611e14565b6040516020818303038152906040526040518463ffffffff1660e01b81526004016116b593929190611da0565b602060405180830381600087803b1580156116cf57600080fd5b505af11580156116e3573d6000803e3d6000fd5b505050506040513d601f19601f820116820180604052508101906117079190611993565b506000611729858430600760008a815260200190815260200160002054611782565b9050611752600160076000888152602001908152602001600020546117be90919063ffffffff16565b6007600087815260200190815260200160002081905550611773858261181c565b9150509392505050565b505050565b60008484848460405160200161179b9493929190611e3d565b6040516020818303038152906040528051906020012060001c9050949350505050565b60008082846117cd919061211d565b905083811015611812576040517f08c379a000000000000000000000000000000000000000000000000000000000815260040161180990611f44565b60405180910390fd5b8091505092915050565b60008282604051602001611831929190611d5f565b60405160208183030381529060405280519060200120905092915050565b60008135905061185e81612749565b92915050565b60008151905061187381612760565b92915050565b60008135905061188881612777565b92915050565b60008135905061189d8161278e565b92915050565b6000602082840312156118b557600080fd5b60006118c38482850161184f565b91505092915050565b600080604083850312156118df57600080fd5b60006118ed8582860161184f565b92505060206118fe8582860161184f565b9150509250929050565b60008060006060848603121561191d57600080fd5b600061192b8682870161184f565b935050602061193c8682870161184f565b925050604061194d8682870161188e565b9150509250925092565b6000806040838503121561196a57600080fd5b60006119788582860161184f565b92505060206119898582860161188e565b9150509250929050565b6000602082840312156119a557600080fd5b60006119b384828501611864565b91505092915050565b600080604083850312156119cf57600080fd5b60006119dd85828601611879565b92505060206119ee8582860161188e565b9150509250929050565b600060208284031215611a0a57600080fd5b6000611a188482850161188e565b91505092915050565b611a2a816121a7565b82525050565b611a39816121b9565b82525050565b611a48816121c5565b82525050565b611a5f611a5a826121c5565b61226b565b82525050565b6000611a70826120da565b611a7a81856120f0565b9350611a8a818560208601612206565b611a93816122dd565b840191505092915050565b6000611aa9826120e5565b611ab3818561210c565b9350611ac3818560208601612206565b611acc816122dd565b840191505092915050565b6000611ae460238361210c565b9150611aef826122ee565b604082019050919050565b6000611b0760228361210c565b9150611b128261233d565b604082019050919050565b6000611b2a60218361210c565b9150611b358261238c565b604082019050919050565b6000611b4d601a8361210c565b9150611b58826123db565b602082019050919050565b6000611b7060228361210c565b9150611b7b82612404565b604082019050919050565b6000611b93601b8361210c565b9150611b9e82612453565b602082019050919050565b6000611bb660268361210c565b9150611bc18261247c565b604082019050919050565b6000611bd960278361210c565b9150611be4826124cb565b604082019050919050565b6000611bfc60288361210c565b9150611c078261251a565b604082019050919050565b6000611c1f60248361210c565b9150611c2a82612569565b604082019050919050565b6000611c42601f8361210c565b9150611c4d826125b8565b602082019050919050565b6000611c6560218361210c565b9150611c70826125e1565b604082019050919050565b6000611c8860258361210c565b9150611c9382612630565b604082019050919050565b6000611cab600083612101565b9150611cb68261267f565b600082019050919050565b6000611cce60248361210c565b9150611cd982612682565b604082019050919050565b6000611cf1601d8361210c565b9150611cfc826126d1565b602082019050919050565b6000611d1460258361210c565b9150611d1f826126fa565b604082019050919050565b611d33816121ef565b82525050565b611d4a611d45826121ef565b612275565b82525050565b611d59816121f9565b82525050565b6000611d6b8285611a4e565b602082019150611d7b8284611d39565b6020820191508190509392505050565b6000611d9682611c9e565b9150819050919050565b6000606082019050611db56000830186611a21565b611dc26020830185611d2a565b8181036040830152611dd48184611a65565b9050949350505050565b6000602082019050611df36000830184611a30565b92915050565b6000602082019050611e0e6000830184611a3f565b92915050565b6000604082019050611e296000830185611a3f565b611e366020830184611d2a565b9392505050565b6000608082019050611e526000830187611a3f565b611e5f6020830186611d2a565b611e6c6040830185611a21565b611e796060830184611d2a565b95945050505050565b60006020820190508181036000830152611e9c8184611a9e565b905092915050565b60006020820190508181036000830152611ebd81611ad7565b9050919050565b60006020820190508181036000830152611edd81611afa565b9050919050565b60006020820190508181036000830152611efd81611b1d565b9050919050565b60006020820190508181036000830152611f1d81611b40565b9050919050565b60006020820190508181036000830152611f3d81611b63565b9050919050565b60006020820190508181036000830152611f5d81611b86565b9050919050565b60006020820190508181036000830152611f7d81611ba9565b9050919050565b60006020820190508181036000830152611f9d81611bcc565b9050919050565b60006020820190508181036000830152611fbd81611bef565b9050919050565b60006020820190508181036000830152611fdd81611c12565b9050919050565b60006020820190508181036000830152611ffd81611c35565b9050919050565b6000602082019050818103600083015261201d81611c58565b9050919050565b6000602082019050818103600083015261203d81611c7b565b9050919050565b6000602082019050818103600083015261205d81611cc1565b9050919050565b6000602082019050818103600083015261207d81611ce4565b9050919050565b6000602082019050818103600083015261209d81611d07565b9050919050565b60006020820190506120b96000830184611d2a565b92915050565b60006020820190506120d46000830184611d50565b92915050565b600081519050919050565b600081519050919050565b600082825260208201905092915050565b600081905092915050565b600082825260208201905092915050565b6000612128826121ef565b9150612133836121ef565b9250827fffffffffffffffffffffffffffffffffffffffffffffffffffffffffffffffff038211156121685761216761227f565b5b828201905092915050565b600061217e826121ef565b9150612189836121ef565b92508282101561219c5761219b61227f565b5b828203905092915050565b60006121b2826121cf565b9050919050565b60008115159050919050565b6000819050919050565b600073ffffffffffffffffffffffffffffffffffffffff82169050919050565b6000819050919050565b600060ff82169050919050565b60005b83811015612224578082015181840152602081019050612209565b83811115612233576000848401525b50505050565b6000600282049050600182168061225157607f821691505b60208210811415612265576122646122ae565b5b50919050565b6000819050919050565b6000819050919050565b7f4e487b7100000000000000000000000000000000000000000000000000000000600052601160045260246000fd5b7f4e487b7100000000000000000000000000000000000000000000000000000000600052602260045260246000fd5b6000601f19601f8301169050919050565b7f45524332303a207472616e7366657220746f20746865207a65726f206164647260008201527f6573730000000000000000000000000000000000000000000000000000000000602082015250565b7f45524332303a206275726e20616d6f756e7420657863656564732062616c616e60008201527f6365000000000000000000000000000000000000000000000000000000000000602082015250565b7f596f752063616e206f6e6c79207265717565737420546f6b656e73206f6e636560008201527f2100000000000000000000000000000000000000000000000000000000000000602082015250565b7f52657761726420697320616c7265616479206772616e74656421000000000000600082015250565b7f45524332303a20617070726f766520746f20746865207a65726f20616464726560008201527f7373000000000000000000000000000000000000000000000000000000000000602082015250565b7f536166654d6174683a206164646974696f6e206f766572666c6f770000000000600082015250565b7f45524332303a207472616e7366657220616d6f756e742065786365656473206260008201527f616c616e63650000000000000000000000000000000000000000000000000000602082015250565b7f4661696c656420746f207472616e73666572207468652066756e64732c20616260008201527f6f7274696e672e00000000000000000000000000000000000000000000000000602082015250565b7f45524332303a207472616e7366657220616d6f756e742065786365656473206160008201527f6c6c6f77616e6365000000000000000000000000000000000000000000000000602082015250565b7f45524332303a206275726e20616d6f756e74206578636565647320616c6c6f7760008201527f616e636500000000000000000000000000000000000000000000000000000000602082015250565b7f4f6e6c7920565246436f6f7264696e61746f722063616e2066756c66696c6c00600082015250565b7f45524332303a206275726e2066726f6d20746865207a65726f2061646472657360008201527f7300000000000000000000000000000000000000000000000000000000000000602082015250565b7f45524332303a207472616e736665722066726f6d20746865207a65726f20616460008201527f6472657373000000000000000000000000000000000000000000000000000000602082015250565b50565b7f45524332303a20617070726f76652066726f6d20746865207a65726f2061646460008201527f7265737300000000000000000000000000000000000000000000000000000000602082015250565b7f596f7520617265206e6f74206772616e74656420612072657761726421000000600082015250565b7f45524332303a2064656372656173656420616c6c6f77616e63652062656c6f7760008201527f207a65726f000000000000000000000000000000000000000000000000000000602082015250565b612752816121a7565b811461275d57600080fd5b50565b612769816121b9565b811461277457600080fd5b50565b612780816121c5565b811461278b57600080fd5b50565b612797816121ef565b81146127a257600080fd5b5056fea26469706673582212205003d10c495e83aee65928cc34dfaf278d6f85b909a5993f937d719a0a3baf7c64736f6c63430008040033",
  "immutableReferences": {
    "187": [
      {
        "length": 32,
        "start": 5657
      }
    ],
    "189": [
      {
        "length": 32,
        "start": 2666
      },
      {
        "length": 32,
        "start": 5717
      }
    ]
  },
  "source": "pragma solidity ^0.8.0;\r\n\r\nimport \"../node_modules/@openzeppelin/contracts/token/ERC20/ERC20.sol\";\r\nimport \"../node_modules/@openzeppelin/contracts/token/ERC20/presets/ERC20PresetFixedSupply.sol\";\r\nimport \"./VRFConsumerBase.sol\";\r\n\r\ncontract MyTestNetToken is ERC20, ERC20PresetFixedSupply, VRFConsumerBase {\r\n\r\n    bytes32 public keyHash; //Identifies which oracle is to be used for\r\n    uint256 public fee; //Fee to be send\r\n    uint256 public randomResult; \r\n    address vrfCoordinatorMumbai = 0x8C7382F9D8f56b33781fE506E897a4F1e2d17255;\r\n    address linkOnMumbai = 0x326C977E6efc84E512bB9C30f76E30c160eD06FB;\r\n\r\n   \r\n\r\n\r\nconstructor(\r\n    string memory name, \r\n    string memory symbol, \r\n    uint256 initialSupply, \r\n    address payable owner\r\n     ) ERC20PresetFixedSupply(\"MyTestNetToken\", \"MTNT\", 1000000000000000000000000, msg.sender) \r\n       VRFConsumerBase (vrfCoordinatorMumbai, linkOnMumbai)\r\n    {\r\n        keyHash = 0x6e75b569a01ef56d18cab6a8e71e6600d6ce853834d4a5748b720d06f878b3a4;\r\n        fee = 0.1 * 10 ** 18; //0.1 LINK \r\n    }\r\n\r\nfunction getRandomNumber (uint256 userProvidedSeed) public returns(bytes32 requestId) {\r\n    return requestRandomness(keyHash, fee, userProvidedSeed);\r\n}\r\n\r\nfunction fulfillRandomness(bytes32 requestId, uint256 randomness) internal override {\r\n    randomResult = randomness;\r\n}\r\n\r\nfunction payout(uint256 amount) public {\r\n    (bool success, ) = msg.sender.call{value: amount}(\"\");\r\n    require(success, \"Failed to transfer the funds, aborting.\");\r\n}\r\n\r\n    receive() external payable {\r\n\r\n    }\r\n\r\n\r\n}",
  "sourcePath": "D:/solidity/erc20/contracts/MyTestNetToken.sol",
  "compiler": {
    "name": "solc",
    "version": "0.8.4+commit.c7e474f2.Emscripten.clang"
  },
  "schemaVersion": "3.4.1",
  "updatedAt": "2021-05-12T09:12:11.405Z",
  "networkType": "ethereum",
  "devdoc": {
    "kind": "dev",
    "methods": {
      "allowance(address,address)": {
        "details": "See {IERC20-allowance}."
      },
      "approve(address,uint256)": {
        "details": "See {IERC20-approve}. Requirements: - `spender` cannot be the zero address."
      },
      "balanceOf(address)": {
        "details": "See {IERC20-balanceOf}."
      },
      "burn(uint256)": {
        "details": "Destroys `amount` tokens from the caller. See {ERC20-_burn}."
      },
      "burnFrom(address,uint256)": {
        "details": "Destroys `amount` tokens from `account`, deducting from the caller's allowance. See {ERC20-_burn} and {ERC20-allowance}. Requirements: - the caller must have allowance for ``accounts``'s tokens of at least `amount`."
      },
      "decimals()": {
        "details": "Returns the number of decimals used to get its user representation. For example, if `decimals` equals `2`, a balance of `505` tokens should be displayed to a user as `5,05` (`505 / 10 ** 2`). Tokens usually opt for a value of 18, imitating the relationship between Ether and Wei. This is the value {ERC20} uses, unless this function is overridden; NOTE: This information is only used for _display_ purposes: it in no way affects any of the arithmetic of the contract, including {IERC20-balanceOf} and {IERC20-transfer}."
      },
      "decreaseAllowance(address,uint256)": {
        "details": "Atomically decreases the allowance granted to `spender` by the caller. This is an alternative to {approve} that can be used as a mitigation for problems described in {IERC20-approve}. Emits an {Approval} event indicating the updated allowance. Requirements: - `spender` cannot be the zero address. - `spender` must have allowance for the caller of at least `subtractedValue`."
      },
      "increaseAllowance(address,uint256)": {
        "details": "Atomically increases the allowance granted to `spender` by the caller. This is an alternative to {approve} that can be used as a mitigation for problems described in {IERC20-approve}. Emits an {Approval} event indicating the updated allowance. Requirements: - `spender` cannot be the zero address."
      },
      "name()": {
        "details": "Returns the name of the token."
      },
      "symbol()": {
        "details": "Returns the symbol of the token, usually a shorter version of the name."
      },
      "totalSupply()": {
        "details": "See {IERC20-totalSupply}."
      },
      "transfer(address,uint256)": {
        "details": "See {IERC20-transfer}. Requirements: - `recipient` cannot be the zero address. - the caller must have a balance of at least `amount`."
      },
      "transferFrom(address,address,uint256)": {
        "details": "See {IERC20-transferFrom}. Emits an {Approval} event indicating the updated allowance. This is not required by the EIP. See the note at the beginning of {ERC20}. Requirements: - `sender` and `recipient` cannot be the zero address. - `sender` must have a balance of at least `amount`. - the caller must have allowance for ``sender``'s tokens of at least `amount`."
      }
    },
    "version": 1
  },
  "userdoc": {
    "kind": "user",
    "methods": {},
    "version": 1
  }
}