{
  "contractName": "MyTestNetToken",
  "abi": [
    {
      "inputs": [
        {
          "internalType": "string",
          "name": "name",
          "type": "string"
        },
        {
          "internalType": "string",
          "name": "symbol",
          "type": "string"
        },
        {
          "internalType": "uint256",
          "name": "initialSupply",
          "type": "uint256"
        },
        {
          "internalType": "address payable",
          "name": "owner",
          "type": "address"
        }
      ],
      "stateMutability": "nonpayable",
      "type": "constructor"
    },
    {
      "anonymous": false,
      "inputs": [
        {
          "indexed": true,
          "internalType": "address",
          "name": "owner",
          "type": "address"
        },
        {
          "indexed": true,
          "internalType": "address",
          "name": "spender",
          "type": "address"
        },
        {
          "indexed": false,
          "internalType": "uint256",
          "name": "value",
          "type": "uint256"
        }
      ],
      "name": "Approval",
      "type": "event"
    },
    {
      "anonymous": false,
      "inputs": [
        {
          "indexed": true,
          "internalType": "address",
          "name": "from",
          "type": "address"
        },
        {
          "indexed": true,
          "internalType": "address",
          "name": "to",
          "type": "address"
        },
        {
          "indexed": false,
          "internalType": "uint256",
          "name": "value",
          "type": "uint256"
        }
      ],
      "name": "Transfer",
      "type": "event"
    },
    {
      "inputs": [
        {
          "internalType": "address",
          "name": "owner",
          "type": "address"
        },
        {
          "internalType": "address",
          "name": "spender",
          "type": "address"
        }
      ],
      "name": "allowance",
      "outputs": [
        {
          "internalType": "uint256",
          "name": "",
          "type": "uint256"
        }
      ],
      "stateMutability": "view",
      "type": "function",
      "constant": true
    },
    {
      "inputs": [
        {
          "internalType": "address",
          "name": "spender",
          "type": "address"
        },
        {
          "internalType": "uint256",
          "name": "amount",
          "type": "uint256"
        }
      ],
      "name": "approve",
      "outputs": [
        {
          "internalType": "bool",
          "name": "",
          "type": "bool"
        }
      ],
      "stateMutability": "nonpayable",
      "type": "function"
    },
    {
      "inputs": [
        {
          "internalType": "address",
          "name": "account",
          "type": "address"
        }
      ],
      "name": "balanceOf",
      "outputs": [
        {
          "internalType": "uint256",
          "name": "",
          "type": "uint256"
        }
      ],
      "stateMutability": "view",
      "type": "function",
      "constant": true
    },
    {
      "inputs": [
        {
          "internalType": "uint256",
          "name": "amount",
          "type": "uint256"
        }
      ],
      "name": "burn",
      "outputs": [],
      "stateMutability": "nonpayable",
      "type": "function"
    },
    {
      "inputs": [
        {
          "internalType": "address",
          "name": "account",
          "type": "address"
        },
        {
          "internalType": "uint256",
          "name": "amount",
          "type": "uint256"
        }
      ],
      "name": "burnFrom",
      "outputs": [],
      "stateMutability": "nonpayable",
      "type": "function"
    },
    {
      "inputs": [],
      "name": "decimals",
      "outputs": [
        {
          "internalType": "uint8",
          "name": "",
          "type": "uint8"
        }
      ],
      "stateMutability": "view",
      "type": "function",
      "constant": true
    },
    {
      "inputs": [
        {
          "internalType": "address",
          "name": "spender",
          "type": "address"
        },
        {
          "internalType": "uint256",
          "name": "subtractedValue",
          "type": "uint256"
        }
      ],
      "name": "decreaseAllowance",
      "outputs": [
        {
          "internalType": "bool",
          "name": "",
          "type": "bool"
        }
      ],
      "stateMutability": "nonpayable",
      "type": "function"
    },
    {
      "inputs": [],
      "name": "fee",
      "outputs": [
        {
          "internalType": "uint256",
          "name": "",
          "type": "uint256"
        }
      ],
      "stateMutability": "view",
      "type": "function",
      "constant": true
    },
    {
      "inputs": [
        {
          "internalType": "address",
          "name": "spender",
          "type": "address"
        },
        {
          "internalType": "uint256",
          "name": "addedValue",
          "type": "uint256"
        }
      ],
      "name": "increaseAllowance",
      "outputs": [
        {
          "internalType": "bool",
          "name": "",
          "type": "bool"
        }
      ],
      "stateMutability": "nonpayable",
      "type": "function"
    },
    {
      "inputs": [],
      "name": "keyHash",
      "outputs": [
        {
          "internalType": "bytes32",
          "name": "",
          "type": "bytes32"
        }
      ],
      "stateMutability": "view",
      "type": "function",
      "constant": true
    },
    {
      "inputs": [],
      "name": "name",
      "outputs": [
        {
          "internalType": "string",
          "name": "",
          "type": "string"
        }
      ],
      "stateMutability": "view",
      "type": "function",
      "constant": true
    },
    {
      "inputs": [],
      "name": "randomResult",
      "outputs": [
        {
          "internalType": "uint256",
          "name": "",
          "type": "uint256"
        }
      ],
      "stateMutability": "view",
      "type": "function",
      "constant": true
    },
    {
      "inputs": [
        {
          "internalType": "bytes32",
          "name": "requestId",
          "type": "bytes32"
        },
        {
          "internalType": "uint256",
          "name": "randomness",
          "type": "uint256"
        }
      ],
      "name": "rawFulfillRandomness",
      "outputs": [],
      "stateMutability": "nonpayable",
      "type": "function"
    },
    {
      "inputs": [],
      "name": "symbol",
      "outputs": [
        {
          "internalType": "string",
          "name": "",
          "type": "string"
        }
      ],
      "stateMutability": "view",
      "type": "function",
      "constant": true
    },
    {
      "inputs": [],
      "name": "totalSupply",
      "outputs": [
        {
          "internalType": "uint256",
          "name": "",
          "type": "uint256"
        }
      ],
      "stateMutability": "view",
      "type": "function",
      "constant": true
    },
    {
      "inputs": [
        {
          "internalType": "address",
          "name": "recipient",
          "type": "address"
        },
        {
          "internalType": "uint256",
          "name": "amount",
          "type": "uint256"
        }
      ],
      "name": "transfer",
      "outputs": [
        {
          "internalType": "bool",
          "name": "",
          "type": "bool"
        }
      ],
      "stateMutability": "nonpayable",
      "type": "function"
    },
    {
      "inputs": [
        {
          "internalType": "address",
          "name": "sender",
          "type": "address"
        },
        {
          "internalType": "address",
          "name": "recipient",
          "type": "address"
        },
        {
          "internalType": "uint256",
          "name": "amount",
          "type": "uint256"
        }
      ],
      "name": "transferFrom",
      "outputs": [
        {
          "internalType": "bool",
          "name": "",
          "type": "bool"
        }
      ],
      "stateMutability": "nonpayable",
      "type": "function"
    },
    {
      "stateMutability": "payable",
      "type": "receive",
      "payable": true
    },
    {
      "inputs": [
        {
          "internalType": "uint256",
          "name": "userProvidedSeed",
          "type": "uint256"
        }
      ],
      "name": "getRandomNumber",
      "outputs": [
        {
          "internalType": "bytes32",
          "name": "requestId",
          "type": "bytes32"
        }
      ],
      "stateMutability": "nonpayable",
      "type": "function"
    },
    {
      "inputs": [
        {
          "internalType": "uint256",
          "name": "amount",
          "type": "uint256"
        }
      ],
      "name": "payout",
      "outputs": [],
      "stateMutability": "nonpayable",
      "type": "function"
    }
  ],
  "bytecode": "0x60c0604052738c7382f9d8f56b33781fe506e897a4f1e2d17255600960006101000a81548173ffffffffffffffffffffffffffffffffffffffff021916908373ffffffffffffffffffffffffffffffffffffffff16021790555073326c977e6efc84e512bb9c30f76e30c160ed06fb600a60006101000a81548173ffffffffffffffffffffffffffffffffffffffff021916908373ffffffffffffffffffffffffffffffffffffffff160217905550348015620000bb57600080fd5b5060405162002ba338038062002ba38339818101604052810190620000e1919062000558565b600960009054906101000a900473ffffffffffffffffffffffffffffffffffffffff16600a60009054906101000a900473ffffffffffffffffffffffffffffffffffffffff166040518060400160405280600e81526020017f4d79546573744e6574546f6b656e0000000000000000000000000000000000008152506040518060400160405280600481526020017f4d544e540000000000000000000000000000000000000000000000000000000081525069d3c21bcecceda10000003383838160039080519060200190620001b992919062000408565b508060049080519060200190620001d292919062000408565b505050620001e781836200029e60201b60201c565b505050508173ffffffffffffffffffffffffffffffffffffffff1660a08173ffffffffffffffffffffffffffffffffffffffff1660601b815250508073ffffffffffffffffffffffffffffffffffffffff1660808173ffffffffffffffffffffffffffffffffffffffff1660601b8152505050507f6e75b569a01ef56d18cab6a8e71e6600d6ce853834d4a5748b720d06f878b3a460001b60068190555067016345785d8a00006007819055505050505062000915565b600073ffffffffffffffffffffffffffffffffffffffff168273ffffffffffffffffffffffffffffffffffffffff16141562000311576040517f08c379a000000000000000000000000000000000000000000000000000000000815260040162000308906200062e565b60405180910390fd5b62000325600083836200040360201b60201c565b8060026000828254620003399190620006dd565b92505081905550806000808473ffffffffffffffffffffffffffffffffffffffff1673ffffffffffffffffffffffffffffffffffffffff1681526020019081526020016000206000828254620003909190620006dd565b925050819055508173ffffffffffffffffffffffffffffffffffffffff16600073ffffffffffffffffffffffffffffffffffffffff167fddf252ad1be2c89b69c2b068fc378daa952ba7f163c4a11628f55a4df523b3ef83604051620003f7919062000650565b60405180910390a35050565b505050565b8280546200041690620007ae565b90600052602060002090601f0160209004810192826200043a576000855562000486565b82601f106200045557805160ff191683800117855562000486565b8280016001018555821562000486579182015b828111156200048557825182559160200191906001019062000468565b5b50905062000495919062000499565b5090565b5b80821115620004b45760008160009055506001016200049a565b5090565b6000620004cf620004c98462000696565b6200066d565b905082815260208101848484011115620004e857600080fd5b620004f584828562000778565b509392505050565b6000815190506200050e81620008e1565b92915050565b600082601f8301126200052657600080fd5b815162000538848260208601620004b8565b91505092915050565b6000815190506200055281620008fb565b92915050565b600080600080608085870312156200056f57600080fd5b600085015167ffffffffffffffff8111156200058a57600080fd5b620005988782880162000514565b945050602085015167ffffffffffffffff811115620005b657600080fd5b620005c48782880162000514565b9350506040620005d78782880162000541565b9250506060620005ea87828801620004fd565b91505092959194509250565b600062000605601f83620006cc565b91506200061282620008b8565b602082019050919050565b62000628816200076e565b82525050565b600060208201905081810360008301526200064981620005f6565b9050919050565b60006020820190506200066760008301846200061d565b92915050565b6000620006796200068c565b9050620006878282620007e4565b919050565b6000604051905090565b600067ffffffffffffffff821115620006b457620006b362000878565b5b620006bf82620008a7565b9050602081019050919050565b600082825260208201905092915050565b6000620006ea826200076e565b9150620006f7836200076e565b9250827fffffffffffffffffffffffffffffffffffffffffffffffffffffffffffffffff038211156200072f576200072e6200081a565b5b828201905092915050565b600062000747826200074e565b9050919050565b600073ffffffffffffffffffffffffffffffffffffffff82169050919050565b6000819050919050565b60005b83811015620007985780820151818401526020810190506200077b565b83811115620007a8576000848401525b50505050565b60006002820490506001821680620007c757607f821691505b60208210811415620007de57620007dd62000849565b5b50919050565b620007ef82620008a7565b810181811067ffffffffffffffff8211171562000811576200081062000878565b5b80604052505050565b7f4e487b7100000000000000000000000000000000000000000000000000000000600052601160045260246000fd5b7f4e487b7100000000000000000000000000000000000000000000000000000000600052602260045260246000fd5b7f4e487b7100000000000000000000000000000000000000000000000000000000600052604160045260246000fd5b6000601f19601f8301169050919050565b7f45524332303a206d696e7420746f20746865207a65726f206164647265737300600082015250565b620008ec816200073a565b8114620008f857600080fd5b50565b62000906816200076e565b81146200091257600080fd5b50565b60805160601c60a05160601c61225b620009486000396000818161083b015261123f01526000611203015261225b6000f3fe6080604052600436106101185760003560e01c806370a08231116100a0578063a9059cbb11610064578063a9059cbb146103d2578063b37217a41461040f578063dd62ed3e1461044c578063ddca3f4314610489578063e1152343146104b45761011f565b806370a08231146102db57806379cc67901461031857806394985ddd1461034157806395d89b411461036a578063a457c2d7146103955761011f565b8063313ce567116100e7578063313ce567146101f4578063395093511461021f57806342619f661461025c57806342966c681461028757806361728f39146102b05761011f565b806306fdde0314610124578063095ea7b31461014f57806318160ddd1461018c57806323b872dd146101b75761011f565b3661011f57005b600080fd5b34801561013057600080fd5b506101396104dd565b6040516101469190611a03565b60405180910390f35b34801561015b57600080fd5b5061017660048036038101906101719190611541565b61056f565b604051610183919061195f565b60405180910390f35b34801561019857600080fd5b506101a161058d565b6040516101ae9190611bc5565b60405180910390f35b3480156101c357600080fd5b506101de60048036038101906101d991906114f2565b610597565b6040516101eb919061195f565b60405180910390f35b34801561020057600080fd5b50610209610698565b6040516102169190611be0565b60405180910390f35b34801561022b57600080fd5b5061024660048036038101906102419190611541565b6106a1565b604051610253919061195f565b60405180910390f35b34801561026857600080fd5b5061027161074d565b60405161027e9190611bc5565b60405180910390f35b34801561029357600080fd5b506102ae60048036038101906102a991906115e2565b610753565b005b3480156102bc57600080fd5b506102c5610767565b6040516102d2919061197a565b60405180910390f35b3480156102e757600080fd5b5061030260048036038101906102fd919061148d565b61076d565b60405161030f9190611bc5565b60405180910390f35b34801561032457600080fd5b5061033f600480360381019061033a9190611541565b6107b5565b005b34801561034d57600080fd5b50610368600480360381019061036391906115a6565b610839565b005b34801561037657600080fd5b5061037f6108d5565b60405161038c9190611a03565b60405180910390f35b3480156103a157600080fd5b506103bc60048036038101906103b79190611541565b610967565b6040516103c9919061195f565b60405180910390f35b3480156103de57600080fd5b506103f960048036038101906103f49190611541565b610a5b565b604051610406919061195f565b60405180910390f35b34801561041b57600080fd5b50610436600480360381019061043191906115e2565b610a79565b604051610443919061197a565b60405180910390f35b34801561045857600080fd5b50610473600480360381019061046e91906114b6565b610a91565b6040516104809190611bc5565b60405180910390f35b34801561049557600080fd5b5061049e610b18565b6040516104ab9190611bc5565b60405180910390f35b3480156104c057600080fd5b506104db60048036038101906104d691906115e2565b610b1e565b005b6060600380546104ec90611d5a565b80601f016020809104026020016040519081016040528092919081815260200182805461051890611d5a565b80156105655780601f1061053a57610100808354040283529160200191610565565b820191906000526020600020905b81548152906001019060200180831161054857829003601f168201915b5050505050905090565b600061058361057c610bce565b8484610bd6565b6001905092915050565b6000600254905090565b60006105a4848484610da1565b6000600160008673ffffffffffffffffffffffffffffffffffffffff1673ffffffffffffffffffffffffffffffffffffffff16815260200190815260200160002060006105ef610bce565b73ffffffffffffffffffffffffffffffffffffffff1673ffffffffffffffffffffffffffffffffffffffff1681526020019081526020016000205490508281101561066f576040517f08c379a000000000000000000000000000000000000000000000000000000000815260040161066690611ae5565b60405180910390fd5b61068c8561067b610bce565b85846106879190611c94565b610bd6565b60019150509392505050565b60006012905090565b60006107436106ae610bce565b8484600160006106bc610bce565b73ffffffffffffffffffffffffffffffffffffffff1673ffffffffffffffffffffffffffffffffffffffff16815260200190815260200160002060008873ffffffffffffffffffffffffffffffffffffffff1673ffffffffffffffffffffffffffffffffffffffff1681526020019081526020016000205461073e9190611c3e565b610bd6565b6001905092915050565b60085481565b61076461075e610bce565b82611020565b50565b60065481565b60008060008373ffffffffffffffffffffffffffffffffffffffff1673ffffffffffffffffffffffffffffffffffffffff168152602001908152602001600020549050919050565b60006107c8836107c3610bce565b610a91565b90508181101561080d576040517f08c379a000000000000000000000000000000000000000000000000000000000815260040161080490611b05565b60405180910390fd5b61082a83610819610bce565b84846108259190611c94565b610bd6565b6108348383611020565b505050565b7f000000000000000000000000000000000000000000000000000000000000000073ffffffffffffffffffffffffffffffffffffffff163373ffffffffffffffffffffffffffffffffffffffff16146108c7576040517f08c379a00000000000000000000000000000000000000000000000000000000081526004016108be90611b25565b60405180910390fd5b6108d182826111f4565b5050565b6060600480546108e490611d5a565b80601f016020809104026020016040519081016040528092919081815260200182805461091090611d5a565b801561095d5780601f106109325761010080835404028352916020019161095d565b820191906000526020600020905b81548152906001019060200180831161094057829003601f168201915b5050505050905090565b60008060016000610976610bce565b73ffffffffffffffffffffffffffffffffffffffff1673ffffffffffffffffffffffffffffffffffffffff16815260200190815260200160002060008573ffffffffffffffffffffffffffffffffffffffff1673ffffffffffffffffffffffffffffffffffffffff16815260200190815260200160002054905082811015610a33576040517f08c379a0000000000000000000000000000000000000000000000000000000008152600401610a2a90611ba5565b60405180910390fd5b610a50610a3e610bce565b858584610a4b9190611c94565b610bd6565b600191505092915050565b6000610a6f610a68610bce565b8484610da1565b6001905092915050565b6000610a8a600654600754846111ff565b9050919050565b6000600160008473ffffffffffffffffffffffffffffffffffffffff1673ffffffffffffffffffffffffffffffffffffffff16815260200190815260200160002060008373ffffffffffffffffffffffffffffffffffffffff1673ffffffffffffffffffffffffffffffffffffffff16815260200190815260200160002054905092915050565b60075481565b60003373ffffffffffffffffffffffffffffffffffffffff1682604051610b449061190c565b60006040518083038185875af1925050503d8060008114610b81576040519150601f19603f3d011682016040523d82523d6000602084013e610b86565b606091505b5050905080610bca576040517f08c379a0000000000000000000000000000000000000000000000000000000008152600401610bc190611ac5565b60405180910390fd5b5050565b600033905090565b600073ffffffffffffffffffffffffffffffffffffffff168373ffffffffffffffffffffffffffffffffffffffff161415610c46576040517f08c379a0000000000000000000000000000000000000000000000000000000008152600401610c3d90611b85565b60405180910390fd5b600073ffffffffffffffffffffffffffffffffffffffff168273ffffffffffffffffffffffffffffffffffffffff161415610cb6576040517f08c379a0000000000000000000000000000000000000000000000000000000008152600401610cad90611a65565b60405180910390fd5b80600160008573ffffffffffffffffffffffffffffffffffffffff1673ffffffffffffffffffffffffffffffffffffffff16815260200190815260200160002060008473ffffffffffffffffffffffffffffffffffffffff1673ffffffffffffffffffffffffffffffffffffffff168152602001908152602001600020819055508173ffffffffffffffffffffffffffffffffffffffff168373ffffffffffffffffffffffffffffffffffffffff167f8c5be1e5ebec7d5bd14f71427d1e84f3dd0314c0f7b2291e5b200ac8c7c3b92583604051610d949190611bc5565b60405180910390a3505050565b600073ffffffffffffffffffffffffffffffffffffffff168373ffffffffffffffffffffffffffffffffffffffff161415610e11576040517f08c379a0000000000000000000000000000000000000000000000000000000008152600401610e0890611b65565b60405180910390fd5b600073ffffffffffffffffffffffffffffffffffffffff168273ffffffffffffffffffffffffffffffffffffffff161415610e81576040517f08c379a0000000000000000000000000000000000000000000000000000000008152600401610e7890611a25565b60405180910390fd5b610e8c838383611367565b60008060008573ffffffffffffffffffffffffffffffffffffffff1673ffffffffffffffffffffffffffffffffffffffff16815260200190815260200160002054905081811015610f12576040517f08c379a0000000000000000000000000000000000000000000000000000000008152600401610f0990611aa5565b60405180910390fd5b8181610f1e9190611c94565b6000808673ffffffffffffffffffffffffffffffffffffffff1673ffffffffffffffffffffffffffffffffffffffff16815260200190815260200160002081905550816000808573ffffffffffffffffffffffffffffffffffffffff1673ffffffffffffffffffffffffffffffffffffffff1681526020019081526020016000206000828254610fae9190611c3e565b925050819055508273ffffffffffffffffffffffffffffffffffffffff168473ffffffffffffffffffffffffffffffffffffffff167fddf252ad1be2c89b69c2b068fc378daa952ba7f163c4a11628f55a4df523b3ef846040516110129190611bc5565b60405180910390a350505050565b600073ffffffffffffffffffffffffffffffffffffffff168273ffffffffffffffffffffffffffffffffffffffff161415611090576040517f08c379a000000000000000000000000000000000000000000000000000000000815260040161108790611b45565b60405180910390fd5b61109c82600083611367565b60008060008473ffffffffffffffffffffffffffffffffffffffff1673ffffffffffffffffffffffffffffffffffffffff16815260200190815260200160002054905081811015611122576040517f08c379a000000000000000000000000000000000000000000000000000000000815260040161111990611a45565b60405180910390fd5b818161112e9190611c94565b6000808573ffffffffffffffffffffffffffffffffffffffff1673ffffffffffffffffffffffffffffffffffffffff1681526020019081526020016000208190555081600260008282546111829190611c94565b92505081905550600073ffffffffffffffffffffffffffffffffffffffff168373ffffffffffffffffffffffffffffffffffffffff167fddf252ad1be2c89b69c2b068fc378daa952ba7f163c4a11628f55a4df523b3ef846040516111e79190611bc5565b60405180910390a3505050565b806008819055505050565b60007f000000000000000000000000000000000000000000000000000000000000000073ffffffffffffffffffffffffffffffffffffffff16634000aea07f0000000000000000000000000000000000000000000000000000000000000000858786604051602001611272929190611995565b6040516020818303038152906040526040518463ffffffff1660e01b815260040161129f93929190611921565b602060405180830381600087803b1580156112b957600080fd5b505af11580156112cd573d6000803e3d6000fd5b505050506040513d601f19601f820116820180604052508101906112f1919061157d565b506000611313858430600560008a81526020019081526020016000205461136c565b905061133c600160056000888152602001908152602001600020546113a890919063ffffffff16565b600560008781526020019081526020016000208190555061135d8582611406565b9150509392505050565b505050565b60008484848460405160200161138594939291906119be565b6040516020818303038152906040528051906020012060001c9050949350505050565b60008082846113b79190611c3e565b9050838110156113fc576040517f08c379a00000000000000000000000000000000000000000000000000000000081526004016113f390611a85565b60405180910390fd5b8091505092915050565b6000828260405160200161141b9291906118e0565b60405160208183030381529060405280519060200120905092915050565b600081359050611448816121c9565b92915050565b60008151905061145d816121e0565b92915050565b600081359050611472816121f7565b92915050565b6000813590506114878161220e565b92915050565b60006020828403121561149f57600080fd5b60006114ad84828501611439565b91505092915050565b600080604083850312156114c957600080fd5b60006114d785828601611439565b92505060206114e885828601611439565b9150509250929050565b60008060006060848603121561150757600080fd5b600061151586828701611439565b935050602061152686828701611439565b925050604061153786828701611478565b9150509250925092565b6000806040838503121561155457600080fd5b600061156285828601611439565b925050602061157385828601611478565b9150509250929050565b60006020828403121561158f57600080fd5b600061159d8482850161144e565b91505092915050565b600080604083850312156115b957600080fd5b60006115c785828601611463565b92505060206115d885828601611478565b9150509250929050565b6000602082840312156115f457600080fd5b600061160284828501611478565b91505092915050565b61161481611cc8565b82525050565b61162381611cda565b82525050565b61163281611ce6565b82525050565b61164961164482611ce6565b611d8c565b82525050565b600061165a82611bfb565b6116648185611c11565b9350611674818560208601611d27565b61167d81611dfe565b840191505092915050565b600061169382611c06565b61169d8185611c2d565b93506116ad818560208601611d27565b6116b681611dfe565b840191505092915050565b60006116ce602383611c2d565b91506116d982611e0f565b604082019050919050565b60006116f1602283611c2d565b91506116fc82611e5e565b604082019050919050565b6000611714602283611c2d565b915061171f82611ead565b604082019050919050565b6000611737601b83611c2d565b915061174282611efc565b602082019050919050565b600061175a602683611c2d565b915061176582611f25565b604082019050919050565b600061177d602783611c2d565b915061178882611f74565b604082019050919050565b60006117a0602883611c2d565b91506117ab82611fc3565b604082019050919050565b60006117c3602483611c2d565b91506117ce82612012565b604082019050919050565b60006117e6601f83611c2d565b91506117f182612061565b602082019050919050565b6000611809602183611c2d565b91506118148261208a565b604082019050919050565b600061182c602583611c2d565b9150611837826120d9565b604082019050919050565b600061184f600083611c22565b915061185a82612128565b600082019050919050565b6000611872602483611c2d565b915061187d8261212b565b604082019050919050565b6000611895602583611c2d565b91506118a08261217a565b604082019050919050565b6118b481611d10565b82525050565b6118cb6118c682611d10565b611d96565b82525050565b6118da81611d1a565b82525050565b60006118ec8285611638565b6020820191506118fc82846118ba565b6020820191508190509392505050565b600061191782611842565b9150819050919050565b6000606082019050611936600083018661160b565b61194360208301856118ab565b8181036040830152611955818461164f565b9050949350505050565b6000602082019050611974600083018461161a565b92915050565b600060208201905061198f6000830184611629565b92915050565b60006040820190506119aa6000830185611629565b6119b760208301846118ab565b9392505050565b60006080820190506119d36000830187611629565b6119e060208301866118ab565b6119ed604083018561160b565b6119fa60608301846118ab565b95945050505050565b60006020820190508181036000830152611a1d8184611688565b905092915050565b60006020820190508181036000830152611a3e816116c1565b9050919050565b60006020820190508181036000830152611a5e816116e4565b9050919050565b60006020820190508181036000830152611a7e81611707565b9050919050565b60006020820190508181036000830152611a9e8161172a565b9050919050565b60006020820190508181036000830152611abe8161174d565b9050919050565b60006020820190508181036000830152611ade81611770565b9050919050565b60006020820190508181036000830152611afe81611793565b9050919050565b60006020820190508181036000830152611b1e816117b6565b9050919050565b60006020820190508181036000830152611b3e816117d9565b9050919050565b60006020820190508181036000830152611b5e816117fc565b9050919050565b60006020820190508181036000830152611b7e8161181f565b9050919050565b60006020820190508181036000830152611b9e81611865565b9050919050565b60006020820190508181036000830152611bbe81611888565b9050919050565b6000602082019050611bda60008301846118ab565b92915050565b6000602082019050611bf560008301846118d1565b92915050565b600081519050919050565b600081519050919050565b600082825260208201905092915050565b600081905092915050565b600082825260208201905092915050565b6000611c4982611d10565b9150611c5483611d10565b9250827fffffffffffffffffffffffffffffffffffffffffffffffffffffffffffffffff03821115611c8957611c88611da0565b5b828201905092915050565b6000611c9f82611d10565b9150611caa83611d10565b925082821015611cbd57611cbc611da0565b5b828203905092915050565b6000611cd382611cf0565b9050919050565b60008115159050919050565b6000819050919050565b600073ffffffffffffffffffffffffffffffffffffffff82169050919050565b6000819050919050565b600060ff82169050919050565b60005b83811015611d45578082015181840152602081019050611d2a565b83811115611d54576000848401525b50505050565b60006002820490506001821680611d7257607f821691505b60208210811415611d8657611d85611dcf565b5b50919050565b6000819050919050565b6000819050919050565b7f4e487b7100000000000000000000000000000000000000000000000000000000600052601160045260246000fd5b7f4e487b7100000000000000000000000000000000000000000000000000000000600052602260045260246000fd5b6000601f19601f8301169050919050565b7f45524332303a207472616e7366657220746f20746865207a65726f206164647260008201527f6573730000000000000000000000000000000000000000000000000000000000602082015250565b7f45524332303a206275726e20616d6f756e7420657863656564732062616c616e60008201527f6365000000000000000000000000000000000000000000000000000000000000602082015250565b7f45524332303a20617070726f766520746f20746865207a65726f20616464726560008201527f7373000000000000000000000000000000000000000000000000000000000000602082015250565b7f536166654d6174683a206164646974696f6e206f766572666c6f770000000000600082015250565b7f45524332303a207472616e7366657220616d6f756e742065786365656473206260008201527f616c616e63650000000000000000000000000000000000000000000000000000602082015250565b7f4661696c656420746f207472616e73666572207468652066756e64732c20616260008201527f6f7274696e672e00000000000000000000000000000000000000000000000000602082015250565b7f45524332303a207472616e7366657220616d6f756e742065786365656473206160008201527f6c6c6f77616e6365000000000000000000000000000000000000000000000000602082015250565b7f45524332303a206275726e20616d6f756e74206578636565647320616c6c6f7760008201527f616e636500000000000000000000000000000000000000000000000000000000602082015250565b7f4f6e6c7920565246436f6f7264696e61746f722063616e2066756c66696c6c00600082015250565b7f45524332303a206275726e2066726f6d20746865207a65726f2061646472657360008201527f7300000000000000000000000000000000000000000000000000000000000000602082015250565b7f45524332303a207472616e736665722066726f6d20746865207a65726f20616460008201527f6472657373000000000000000000000000000000000000000000000000000000602082015250565b50565b7f45524332303a20617070726f76652066726f6d20746865207a65726f2061646460008201527f7265737300000000000000000000000000000000000000000000000000000000602082015250565b7f45524332303a2064656372656173656420616c6c6f77616e63652062656c6f7760008201527f207a65726f000000000000000000000000000000000000000000000000000000602082015250565b6121d281611cc8565b81146121dd57600080fd5b50565b6121e981611cda565b81146121f457600080fd5b50565b61220081611ce6565b811461220b57600080fd5b50565b61221781611d10565b811461222257600080fd5b5056fea264697066735822122096d3eeaa9d2571a69cf357d8769f2a3257d03129541d65fb2c445a648b50410c64736f6c63430008040033",
  "immutableReferences": {
    "220": [
      {
        "length": 32,
        "start": 4611
      }
    ],
    "222": [
      {
        "length": 32,
        "start": 2107
      },
      {
        "length": 32,
        "start": 4671
      }
    ]
  },
  "source": "pragma solidity ^0.8.0;\r\n\r\nimport \"../node_modules/@openzeppelin/contracts/token/ERC20/ERC20.sol\";\r\nimport \"../node_modules/@openzeppelin/contracts/token/ERC20/presets/ERC20PresetFixedSupply.sol\";\r\nimport \"./VRFConsumerBase.sol\";\r\n\r\ncontract MyTestNetToken is ERC20, ERC20PresetFixedSupply, VRFConsumerBase {\r\n\r\n    bytes32 public keyHash; //Identifies which oracle is to be used for\r\n    uint256 public fee; //Fee to be send\r\n    uint256 public randomResult; \r\n    address vrfCoordinatorMumbai = 0x8C7382F9D8f56b33781fE506E897a4F1e2d17255;\r\n    address linkOnMumbai = 0x326C977E6efc84E512bB9C30f76E30c160eD06FB;\r\n\r\n\r\nconstructor(\r\n    string memory name, \r\n    string memory symbol, \r\n    uint256 initialSupply, \r\n    address payable owner\r\n     ) ERC20PresetFixedSupply(\"MyTestNetToken\", \"MTNT\", 1000000000000000000000000, msg.sender) \r\n       VRFConsumerBase (vrfCoordinatorMumbai, linkOnMumbai)\r\n    {\r\n        keyHash = 0x6e75b569a01ef56d18cab6a8e71e6600d6ce853834d4a5748b720d06f878b3a4;\r\n        fee = 0.1 * 10 ** 18; //0.1 LINK \r\n    }\r\n\r\nfunction getRandomNumber (uint256 userProvidedSeed) public returns(bytes32 requestId) {\r\n    return requestRandomness(keyHash, fee, userProvidedSeed);\r\n}\r\n\r\nfunction fulfillRandomness(bytes32 requestId, uint256 randomness) internal override {\r\n    randomResult = randomness;\r\n}\r\n\r\nfunction payout(uint256 amount) public {\r\n    (bool success, ) = msg.sender.call{value: amount}(\"\");\r\n    require(success, \"Failed to transfer the funds, aborting.\");\r\n}\r\n\r\n    receive() external payable {\r\n\r\n    }\r\n}",
  "sourcePath": "D:/solidity/erc20/contracts/MyTestNetToken.sol",
  "compiler": {
    "name": "solc",
    "version": "0.8.4+commit.c7e474f2.Emscripten.clang"
  },
  "schemaVersion": "3.4.1",
  "updatedAt": "2021-05-11T13:43:18.445Z",
  "networkType": "ethereum",
  "devdoc": {
    "kind": "dev",
    "methods": {
      "allowance(address,address)": {
        "details": "See {IERC20-allowance}."
      },
      "approve(address,uint256)": {
        "details": "See {IERC20-approve}. Requirements: - `spender` cannot be the zero address."
      },
      "balanceOf(address)": {
        "details": "See {IERC20-balanceOf}."
      },
      "burn(uint256)": {
        "details": "Destroys `amount` tokens from the caller. See {ERC20-_burn}."
      },
      "burnFrom(address,uint256)": {
        "details": "Destroys `amount` tokens from `account`, deducting from the caller's allowance. See {ERC20-_burn} and {ERC20-allowance}. Requirements: - the caller must have allowance for ``accounts``'s tokens of at least `amount`."
      },
      "decimals()": {
        "details": "Returns the number of decimals used to get its user representation. For example, if `decimals` equals `2`, a balance of `505` tokens should be displayed to a user as `5,05` (`505 / 10 ** 2`). Tokens usually opt for a value of 18, imitating the relationship between Ether and Wei. This is the value {ERC20} uses, unless this function is overridden; NOTE: This information is only used for _display_ purposes: it in no way affects any of the arithmetic of the contract, including {IERC20-balanceOf} and {IERC20-transfer}."
      },
      "decreaseAllowance(address,uint256)": {
        "details": "Atomically decreases the allowance granted to `spender` by the caller. This is an alternative to {approve} that can be used as a mitigation for problems described in {IERC20-approve}. Emits an {Approval} event indicating the updated allowance. Requirements: - `spender` cannot be the zero address. - `spender` must have allowance for the caller of at least `subtractedValue`."
      },
      "increaseAllowance(address,uint256)": {
        "details": "Atomically increases the allowance granted to `spender` by the caller. This is an alternative to {approve} that can be used as a mitigation for problems described in {IERC20-approve}. Emits an {Approval} event indicating the updated allowance. Requirements: - `spender` cannot be the zero address."
      },
      "name()": {
        "details": "Returns the name of the token."
      },
      "symbol()": {
        "details": "Returns the symbol of the token, usually a shorter version of the name."
      },
      "totalSupply()": {
        "details": "See {IERC20-totalSupply}."
      },
      "transfer(address,uint256)": {
        "details": "See {IERC20-transfer}. Requirements: - `recipient` cannot be the zero address. - the caller must have a balance of at least `amount`."
      },
      "transferFrom(address,address,uint256)": {
        "details": "See {IERC20-transferFrom}. Emits an {Approval} event indicating the updated allowance. This is not required by the EIP. See the note at the beginning of {ERC20}. Requirements: - `sender` and `recipient` cannot be the zero address. - `sender` must have a balance of at least `amount`. - the caller must have allowance for ``sender``'s tokens of at least `amount`."
      }
    },
    "version": 1
  },
  "userdoc": {
    "kind": "user",
    "methods": {},
    "version": 1
  }
}