{
  "contractName": "MyTestNetToken",
  "abi": [
    {
      "inputs": [
        {
          "internalType": "string",
          "name": "name",
          "type": "string"
        },
        {
          "internalType": "string",
          "name": "symbol",
          "type": "string"
        },
        {
          "internalType": "uint256",
          "name": "initialSupply",
          "type": "uint256"
        },
        {
          "internalType": "address payable",
          "name": "owner",
          "type": "address"
        },
        {
          "internalType": "address",
          "name": "forwarder",
          "type": "address"
        }
      ],
      "stateMutability": "nonpayable",
      "type": "constructor"
    },
    {
      "anonymous": false,
      "inputs": [
        {
          "indexed": true,
          "internalType": "address",
          "name": "owner",
          "type": "address"
        },
        {
          "indexed": true,
          "internalType": "address",
          "name": "spender",
          "type": "address"
        },
        {
          "indexed": false,
          "internalType": "uint256",
          "name": "value",
          "type": "uint256"
        }
      ],
      "name": "Approval",
      "type": "event"
    },
    {
      "anonymous": false,
      "inputs": [
        {
          "indexed": true,
          "internalType": "address",
          "name": "from",
          "type": "address"
        },
        {
          "indexed": true,
          "internalType": "address",
          "name": "to",
          "type": "address"
        },
        {
          "indexed": false,
          "internalType": "uint256",
          "name": "value",
          "type": "uint256"
        }
      ],
      "name": "Transfer",
      "type": "event"
    },
    {
      "inputs": [
        {
          "internalType": "address",
          "name": "owner",
          "type": "address"
        },
        {
          "internalType": "address",
          "name": "spender",
          "type": "address"
        }
      ],
      "name": "allowance",
      "outputs": [
        {
          "internalType": "uint256",
          "name": "",
          "type": "uint256"
        }
      ],
      "stateMutability": "view",
      "type": "function"
    },
    {
      "inputs": [
        {
          "internalType": "address",
          "name": "spender",
          "type": "address"
        },
        {
          "internalType": "uint256",
          "name": "amount",
          "type": "uint256"
        }
      ],
      "name": "approve",
      "outputs": [
        {
          "internalType": "bool",
          "name": "",
          "type": "bool"
        }
      ],
      "stateMutability": "nonpayable",
      "type": "function"
    },
    {
      "inputs": [
        {
          "internalType": "address",
          "name": "account",
          "type": "address"
        }
      ],
      "name": "balanceOf",
      "outputs": [
        {
          "internalType": "uint256",
          "name": "",
          "type": "uint256"
        }
      ],
      "stateMutability": "view",
      "type": "function"
    },
    {
      "inputs": [
        {
          "internalType": "uint256",
          "name": "amount",
          "type": "uint256"
        }
      ],
      "name": "burn",
      "outputs": [],
      "stateMutability": "nonpayable",
      "type": "function"
    },
    {
      "inputs": [
        {
          "internalType": "address",
          "name": "account",
          "type": "address"
        },
        {
          "internalType": "uint256",
          "name": "amount",
          "type": "uint256"
        }
      ],
      "name": "burnFrom",
      "outputs": [],
      "stateMutability": "nonpayable",
      "type": "function"
    },
    {
      "inputs": [],
      "name": "decimals",
      "outputs": [
        {
          "internalType": "uint8",
          "name": "",
          "type": "uint8"
        }
      ],
      "stateMutability": "view",
      "type": "function"
    },
    {
      "inputs": [
        {
          "internalType": "address",
          "name": "spender",
          "type": "address"
        },
        {
          "internalType": "uint256",
          "name": "subtractedValue",
          "type": "uint256"
        }
      ],
      "name": "decreaseAllowance",
      "outputs": [
        {
          "internalType": "bool",
          "name": "",
          "type": "bool"
        }
      ],
      "stateMutability": "nonpayable",
      "type": "function"
    },
    {
      "inputs": [
        {
          "internalType": "address",
          "name": "spender",
          "type": "address"
        },
        {
          "internalType": "uint256",
          "name": "addedValue",
          "type": "uint256"
        }
      ],
      "name": "increaseAllowance",
      "outputs": [
        {
          "internalType": "bool",
          "name": "",
          "type": "bool"
        }
      ],
      "stateMutability": "nonpayable",
      "type": "function"
    },
    {
      "inputs": [],
      "name": "name",
      "outputs": [
        {
          "internalType": "string",
          "name": "",
          "type": "string"
        }
      ],
      "stateMutability": "view",
      "type": "function"
    },
    {
      "inputs": [],
      "name": "payToken",
      "outputs": [],
      "stateMutability": "nonpayable",
      "type": "function"
    },
    {
      "inputs": [
        {
          "internalType": "address",
          "name": "",
          "type": "address"
        }
      ],
      "name": "rewardGranted",
      "outputs": [
        {
          "internalType": "bool",
          "name": "",
          "type": "bool"
        }
      ],
      "stateMutability": "view",
      "type": "function"
    },
    {
      "inputs": [],
      "name": "setRewardGranted",
      "outputs": [],
      "stateMutability": "nonpayable",
      "type": "function"
    },
    {
      "inputs": [],
      "name": "symbol",
      "outputs": [
        {
          "internalType": "string",
          "name": "",
          "type": "string"
        }
      ],
      "stateMutability": "view",
      "type": "function"
    },
    {
      "inputs": [
        {
          "internalType": "address",
          "name": "",
          "type": "address"
        }
      ],
      "name": "tokenRequested",
      "outputs": [
        {
          "internalType": "bool",
          "name": "",
          "type": "bool"
        }
      ],
      "stateMutability": "view",
      "type": "function"
    },
    {
      "inputs": [],
      "name": "tokenReward",
      "outputs": [],
      "stateMutability": "nonpayable",
      "type": "function"
    },
    {
      "inputs": [],
      "name": "totalSupply",
      "outputs": [
        {
          "internalType": "uint256",
          "name": "",
          "type": "uint256"
        }
      ],
      "stateMutability": "view",
      "type": "function"
    },
    {
      "inputs": [
        {
          "internalType": "address",
          "name": "recipient",
          "type": "address"
        },
        {
          "internalType": "uint256",
          "name": "amount",
          "type": "uint256"
        }
      ],
      "name": "transfer",
      "outputs": [
        {
          "internalType": "bool",
          "name": "",
          "type": "bool"
        }
      ],
      "stateMutability": "nonpayable",
      "type": "function"
    },
    {
      "inputs": [
        {
          "internalType": "address",
          "name": "sender",
          "type": "address"
        },
        {
          "internalType": "address",
          "name": "recipient",
          "type": "address"
        },
        {
          "internalType": "uint256",
          "name": "amount",
          "type": "uint256"
        }
      ],
      "name": "transferFrom",
      "outputs": [
        {
          "internalType": "bool",
          "name": "",
          "type": "bool"
        }
      ],
      "stateMutability": "nonpayable",
      "type": "function"
    },
    {
      "stateMutability": "payable",
      "type": "receive"
    },
    {
      "inputs": [
        {
          "internalType": "uint256",
          "name": "amount",
          "type": "uint256"
        }
      ],
      "name": "payout",
      "outputs": [],
      "stateMutability": "nonpayable",
      "type": "function"
    }
  ],
  "bytecode": "0x60806040523480156200001157600080fd5b506040516200290838038062002908833981810160405281019062000037919062000487565b6040518060400160405280600e81526020017f4d79546573744e6574546f6b656e0000000000000000000000000000000000008152506040518060400160405280600481526020017f4d544e540000000000000000000000000000000000000000000000000000000081525069d3c21bcecceda10000003383838160039080519060200190620000c992919062000320565b508060049080519060200190620000e292919062000320565b506000600560003373ffffffffffffffffffffffffffffffffffffffff1673ffffffffffffffffffffffffffffffffffffffff16815260200190815260200160002060006101000a81548160ff0219169083151502179055506000600660003373ffffffffffffffffffffffffffffffffffffffff1673ffffffffffffffffffffffffffffffffffffffff16815260200190815260200160002060006101000a81548160ff0219169083151502179055505050620001a78183620001b660201b60201c565b50505050505050505062000888565b600073ffffffffffffffffffffffffffffffffffffffff168273ffffffffffffffffffffffffffffffffffffffff16141562000229576040517f08c379a0000000000000000000000000000000000000000000000000000000008152600401620002209062000573565b60405180910390fd5b6200023d600083836200031b60201b60201c565b806002600082825462000251919062000622565b92505081905550806000808473ffffffffffffffffffffffffffffffffffffffff1673ffffffffffffffffffffffffffffffffffffffff1681526020019081526020016000206000828254620002a8919062000622565b925050819055508173ffffffffffffffffffffffffffffffffffffffff16600073ffffffffffffffffffffffffffffffffffffffff167fddf252ad1be2c89b69c2b068fc378daa952ba7f163c4a11628f55a4df523b3ef836040516200030f919062000595565b60405180910390a35050565b505050565b8280546200032e9062000707565b90600052602060002090601f0160209004810192826200035257600085556200039e565b82601f106200036d57805160ff19168380011785556200039e565b828001600101855582156200039e579182015b828111156200039d57825182559160200191906001019062000380565b5b509050620003ad9190620003b1565b5090565b5b80821115620003cc576000816000905550600101620003b2565b5090565b6000620003e7620003e184620005db565b620005b2565b9050828152602081018484840111156200040057600080fd5b6200040d848285620006d1565b509392505050565b60008151905062000426816200083a565b92915050565b6000815190506200043d8162000854565b92915050565b600082601f8301126200045557600080fd5b815162000467848260208601620003d0565b91505092915050565b60008151905062000481816200086e565b92915050565b600080600080600060a08688031215620004a057600080fd5b600086015167ffffffffffffffff811115620004bb57600080fd5b620004c98882890162000443565b955050602086015167ffffffffffffffff811115620004e757600080fd5b620004f58882890162000443565b9450506040620005088882890162000470565b93505060606200051b888289016200042c565b92505060806200052e8882890162000415565b9150509295509295909350565b60006200054a601f8362000611565b9150620005578262000811565b602082019050919050565b6200056d81620006c7565b82525050565b600060208201905081810360008301526200058e816200053b565b9050919050565b6000602082019050620005ac600083018462000562565b92915050565b6000620005be620005d1565b9050620005cc82826200073d565b919050565b6000604051905090565b600067ffffffffffffffff821115620005f957620005f8620007d1565b5b620006048262000800565b9050602081019050919050565b600082825260208201905092915050565b60006200062f82620006c7565b91506200063c83620006c7565b9250827fffffffffffffffffffffffffffffffffffffffffffffffffffffffffffffffff0382111562000674576200067362000773565b5b828201905092915050565b60006200068c82620006a7565b9050919050565b6000620006a082620006a7565b9050919050565b600073ffffffffffffffffffffffffffffffffffffffff82169050919050565b6000819050919050565b60005b83811015620006f1578082015181840152602081019050620006d4565b8381111562000701576000848401525b50505050565b600060028204905060018216806200072057607f821691505b60208210811415620007375762000736620007a2565b5b50919050565b620007488262000800565b810181811067ffffffffffffffff821117156200076a5762000769620007d1565b5b80604052505050565b7f4e487b7100000000000000000000000000000000000000000000000000000000600052601160045260246000fd5b7f4e487b7100000000000000000000000000000000000000000000000000000000600052602260045260246000fd5b7f4e487b7100000000000000000000000000000000000000000000000000000000600052604160045260246000fd5b6000601f19601f8301169050919050565b7f45524332303a206d696e7420746f20746865207a65726f206164647265737300600082015250565b62000845816200067f565b81146200085157600080fd5b50565b6200085f8162000693565b81146200086b57600080fd5b50565b6200087981620006c7565b81146200088557600080fd5b50565b61207080620008986000396000f3fe6080604052600436106101185760003560e01c80636e66f6e9116100a0578063a457c2d711610064578063a457c2d7146103be578063a9059cbb146103fb578063c41f5b3514610438578063dd62ed3e1461044f578063e11523431461048c5761011f565b80636e66f6e9146102ff57806370a082311461031657806379cc67901461035357806395d89b411461037c57806396336b30146103a75761011f565b8063313ce567116100e7578063313ce567146101f4578063395093511461021f5780634171b22e1461025c578063417e4b691461029957806342966c68146102d65761011f565b806306fdde0314610124578063095ea7b31461014f57806318160ddd1461018c57806323b872dd146101b75761011f565b3661011f57005b600080fd5b34801561013057600080fd5b506101396104b5565b6040516101469190611811565b60405180910390f35b34801561015b57600080fd5b5061017660048036038101906101719190611509565b610547565b60405161018391906117f6565b60405180910390f35b34801561019857600080fd5b506101a1610565565b6040516101ae91906119f3565b60405180910390f35b3480156101c357600080fd5b506101de60048036038101906101d991906114ba565b61056f565b6040516101eb91906117f6565b60405180910390f35b34801561020057600080fd5b50610209610670565b6040516102169190611a0e565b60405180910390f35b34801561022b57600080fd5b5061024660048036038101906102419190611509565b610679565b60405161025391906117f6565b60405180910390f35b34801561026857600080fd5b50610283600480360381019061027e9190611455565b610725565b60405161029091906117f6565b60405180910390f35b3480156102a557600080fd5b506102c060048036038101906102bb9190611455565b610745565b6040516102cd91906117f6565b60405180910390f35b3480156102e257600080fd5b506102fd60048036038101906102f89190611545565b610765565b005b34801561030b57600080fd5b50610314610779565b005b34801561032257600080fd5b5061033d60048036038101906103389190611455565b610872565b60405161034a91906119f3565b60405180910390f35b34801561035f57600080fd5b5061037a60048036038101906103759190611509565b6108ba565b005b34801561038857600080fd5b5061039161093e565b60405161039e9190611811565b60405180910390f35b3480156103b357600080fd5b506103bc6109d0565b005b3480156103ca57600080fd5b506103e560048036038101906103e09190611509565b610aca565b6040516103f291906117f6565b60405180910390f35b34801561040757600080fd5b50610422600480360381019061041d9190611509565b610bbe565b60405161042f91906117f6565b60405180910390f35b34801561044457600080fd5b5061044d610bdc565b005b34801561045b57600080fd5b506104766004803603810190610471919061147e565b610cc9565b60405161048391906119f3565b60405180910390f35b34801561049857600080fd5b506104b360048036038101906104ae9190611545565b610d50565b005b6060600380546104c490611b62565b80601f01602080910402602001604051908101604052809291908181526020018280546104f090611b62565b801561053d5780601f106105125761010080835404028352916020019161053d565b820191906000526020600020905b81548152906001019060200180831161052057829003601f168201915b5050505050905090565b600061055b610554610e00565b8484610e08565b6001905092915050565b6000600254905090565b600061057c848484610fd3565b6000600160008673ffffffffffffffffffffffffffffffffffffffff1673ffffffffffffffffffffffffffffffffffffffff16815260200190815260200160002060006105c7610e00565b73ffffffffffffffffffffffffffffffffffffffff1673ffffffffffffffffffffffffffffffffffffffff16815260200190815260200160002054905082811015610647576040517f08c379a000000000000000000000000000000000000000000000000000000000815260040161063e90611913565b60405180910390fd5b61066485610653610e00565b858461065f9190611aa6565b610e08565b60019150509392505050565b60006012905090565b600061071b610686610e00565b848460016000610694610e00565b73ffffffffffffffffffffffffffffffffffffffff1673ffffffffffffffffffffffffffffffffffffffff16815260200190815260200160002060008873ffffffffffffffffffffffffffffffffffffffff1673ffffffffffffffffffffffffffffffffffffffff168152602001908152602001600020546107169190611a50565b610e08565b6001905092915050565b60066020528060005260406000206000915054906101000a900460ff1681565b60056020528060005260406000206000915054906101000a900460ff1681565b610776610770610e00565b82611252565b50565b60011515600660003373ffffffffffffffffffffffffffffffffffffffff1673ffffffffffffffffffffffffffffffffffffffff16815260200190815260200160002060009054906101000a900460ff1615151461080c576040517f08c379a0000000000000000000000000000000000000000000000000000000008152600401610803906119b3565b60405180910390fd5b6000600660003373ffffffffffffffffffffffffffffffffffffffff1673ffffffffffffffffffffffffffffffffffffffff16815260200190815260200160002060006101000a81548160ff02191690831515021790555061087030336064610fd3565b565b60008060008373ffffffffffffffffffffffffffffffffffffffff1673ffffffffffffffffffffffffffffffffffffffff168152602001908152602001600020549050919050565b60006108cd836108c8610e00565b610cc9565b905081811015610912576040517f08c379a000000000000000000000000000000000000000000000000000000000815260040161090990611933565b60405180910390fd5b61092f8361091e610e00565b848461092a9190611aa6565b610e08565b6109398383611252565b505050565b60606004805461094d90611b62565b80601f016020809104026020016040519081016040528092919081815260200182805461097990611b62565b80156109c65780601f1061099b576101008083540402835291602001916109c6565b820191906000526020600020905b8154815290600101906020018083116109a957829003601f168201915b5050505050905090565b60001515600560003373ffffffffffffffffffffffffffffffffffffffff1673ffffffffffffffffffffffffffffffffffffffff16815260200190815260200160002060009054906101000a900460ff16151514610a63576040517f08c379a0000000000000000000000000000000000000000000000000000000008152600401610a5a90611873565b60405180910390fd5b610a7030336103e8610fd3565b6001600560003373ffffffffffffffffffffffffffffffffffffffff1673ffffffffffffffffffffffffffffffffffffffff16815260200190815260200160002060006101000a81548160ff021916908315150217905550565b60008060016000610ad9610e00565b73ffffffffffffffffffffffffffffffffffffffff1673ffffffffffffffffffffffffffffffffffffffff16815260200190815260200160002060008573ffffffffffffffffffffffffffffffffffffffff1673ffffffffffffffffffffffffffffffffffffffff16815260200190815260200160002054905082811015610b96576040517f08c379a0000000000000000000000000000000000000000000000000000000008152600401610b8d906119d3565b60405180910390fd5b610bb3610ba1610e00565b858584610bae9190611aa6565b610e08565b600191505092915050565b6000610bd2610bcb610e00565b8484610fd3565b6001905092915050565b60001515600660003373ffffffffffffffffffffffffffffffffffffffff1673ffffffffffffffffffffffffffffffffffffffff16815260200190815260200160002060009054906101000a900460ff16151514610c6f576040517f08c379a0000000000000000000000000000000000000000000000000000000008152600401610c6690611893565b60405180910390fd5b6001600660003373ffffffffffffffffffffffffffffffffffffffff1673ffffffffffffffffffffffffffffffffffffffff16815260200190815260200160002060006101000a81548160ff021916908315150217905550565b6000600160008473ffffffffffffffffffffffffffffffffffffffff1673ffffffffffffffffffffffffffffffffffffffff16815260200190815260200160002060008373ffffffffffffffffffffffffffffffffffffffff1673ffffffffffffffffffffffffffffffffffffffff16815260200190815260200160002054905092915050565b60003373ffffffffffffffffffffffffffffffffffffffff1682604051610d76906117e1565b60006040518083038185875af1925050503d8060008114610db3576040519150601f19603f3d011682016040523d82523d6000602084013e610db8565b606091505b5050905080610dfc576040517f08c379a0000000000000000000000000000000000000000000000000000000008152600401610df3906118f3565b60405180910390fd5b5050565b600033905090565b600073ffffffffffffffffffffffffffffffffffffffff168373ffffffffffffffffffffffffffffffffffffffff161415610e78576040517f08c379a0000000000000000000000000000000000000000000000000000000008152600401610e6f90611993565b60405180910390fd5b600073ffffffffffffffffffffffffffffffffffffffff168273ffffffffffffffffffffffffffffffffffffffff161415610ee8576040517f08c379a0000000000000000000000000000000000000000000000000000000008152600401610edf906118b3565b60405180910390fd5b80600160008573ffffffffffffffffffffffffffffffffffffffff1673ffffffffffffffffffffffffffffffffffffffff16815260200190815260200160002060008473ffffffffffffffffffffffffffffffffffffffff1673ffffffffffffffffffffffffffffffffffffffff168152602001908152602001600020819055508173ffffffffffffffffffffffffffffffffffffffff168373ffffffffffffffffffffffffffffffffffffffff167f8c5be1e5ebec7d5bd14f71427d1e84f3dd0314c0f7b2291e5b200ac8c7c3b92583604051610fc691906119f3565b60405180910390a3505050565b600073ffffffffffffffffffffffffffffffffffffffff168373ffffffffffffffffffffffffffffffffffffffff161415611043576040517f08c379a000000000000000000000000000000000000000000000000000000000815260040161103a90611973565b60405180910390fd5b600073ffffffffffffffffffffffffffffffffffffffff168273ffffffffffffffffffffffffffffffffffffffff1614156110b3576040517f08c379a00000000000000000000000000000000000000000000000000000000081526004016110aa90611833565b60405180910390fd5b6110be838383611426565b60008060008573ffffffffffffffffffffffffffffffffffffffff1673ffffffffffffffffffffffffffffffffffffffff16815260200190815260200160002054905081811015611144576040517f08c379a000000000000000000000000000000000000000000000000000000000815260040161113b906118d3565b60405180910390fd5b81816111509190611aa6565b6000808673ffffffffffffffffffffffffffffffffffffffff1673ffffffffffffffffffffffffffffffffffffffff16815260200190815260200160002081905550816000808573ffffffffffffffffffffffffffffffffffffffff1673ffffffffffffffffffffffffffffffffffffffff16815260200190815260200160002060008282546111e09190611a50565b925050819055508273ffffffffffffffffffffffffffffffffffffffff168473ffffffffffffffffffffffffffffffffffffffff167fddf252ad1be2c89b69c2b068fc378daa952ba7f163c4a11628f55a4df523b3ef8460405161124491906119f3565b60405180910390a350505050565b600073ffffffffffffffffffffffffffffffffffffffff168273ffffffffffffffffffffffffffffffffffffffff1614156112c2576040517f08c379a00000000000000000000000000000000000000000000000000000000081526004016112b990611953565b60405180910390fd5b6112ce82600083611426565b60008060008473ffffffffffffffffffffffffffffffffffffffff1673ffffffffffffffffffffffffffffffffffffffff16815260200190815260200160002054905081811015611354576040517f08c379a000000000000000000000000000000000000000000000000000000000815260040161134b90611853565b60405180910390fd5b81816113609190611aa6565b6000808573ffffffffffffffffffffffffffffffffffffffff1673ffffffffffffffffffffffffffffffffffffffff1681526020019081526020016000208190555081600260008282546113b49190611aa6565b92505081905550600073ffffffffffffffffffffffffffffffffffffffff168373ffffffffffffffffffffffffffffffffffffffff167fddf252ad1be2c89b69c2b068fc378daa952ba7f163c4a11628f55a4df523b3ef8460405161141991906119f3565b60405180910390a3505050565b505050565b60008135905061143a8161200c565b92915050565b60008135905061144f81612023565b92915050565b60006020828403121561146757600080fd5b60006114758482850161142b565b91505092915050565b6000806040838503121561149157600080fd5b600061149f8582860161142b565b92505060206114b08582860161142b565b9150509250929050565b6000806000606084860312156114cf57600080fd5b60006114dd8682870161142b565b93505060206114ee8682870161142b565b92505060406114ff86828701611440565b9150509250925092565b6000806040838503121561151c57600080fd5b600061152a8582860161142b565b925050602061153b85828601611440565b9150509250929050565b60006020828403121561155757600080fd5b600061156584828501611440565b91505092915050565b61157781611aec565b82525050565b600061158882611a29565b6115928185611a3f565b93506115a2818560208601611b2f565b6115ab81611bf2565b840191505092915050565b60006115c3602383611a3f565b91506115ce82611c03565b604082019050919050565b60006115e6602283611a3f565b91506115f182611c52565b604082019050919050565b6000611609602183611a3f565b915061161482611ca1565b604082019050919050565b600061162c601a83611a3f565b915061163782611cf0565b602082019050919050565b600061164f602283611a3f565b915061165a82611d19565b604082019050919050565b6000611672602683611a3f565b915061167d82611d68565b604082019050919050565b6000611695602783611a3f565b91506116a082611db7565b604082019050919050565b60006116b8602883611a3f565b91506116c382611e06565b604082019050919050565b60006116db602483611a3f565b91506116e682611e55565b604082019050919050565b60006116fe602183611a3f565b915061170982611ea4565b604082019050919050565b6000611721602583611a3f565b915061172c82611ef3565b604082019050919050565b6000611744600083611a34565b915061174f82611f42565b600082019050919050565b6000611767602483611a3f565b915061177282611f45565b604082019050919050565b600061178a601d83611a3f565b915061179582611f94565b602082019050919050565b60006117ad602583611a3f565b91506117b882611fbd565b604082019050919050565b6117cc81611b18565b82525050565b6117db81611b22565b82525050565b60006117ec82611737565b9150819050919050565b600060208201905061180b600083018461156e565b92915050565b6000602082019050818103600083015261182b818461157d565b905092915050565b6000602082019050818103600083015261184c816115b6565b9050919050565b6000602082019050818103600083015261186c816115d9565b9050919050565b6000602082019050818103600083015261188c816115fc565b9050919050565b600060208201905081810360008301526118ac8161161f565b9050919050565b600060208201905081810360008301526118cc81611642565b9050919050565b600060208201905081810360008301526118ec81611665565b9050919050565b6000602082019050818103600083015261190c81611688565b9050919050565b6000602082019050818103600083015261192c816116ab565b9050919050565b6000602082019050818103600083015261194c816116ce565b9050919050565b6000602082019050818103600083015261196c816116f1565b9050919050565b6000602082019050818103600083015261198c81611714565b9050919050565b600060208201905081810360008301526119ac8161175a565b9050919050565b600060208201905081810360008301526119cc8161177d565b9050919050565b600060208201905081810360008301526119ec816117a0565b9050919050565b6000602082019050611a0860008301846117c3565b92915050565b6000602082019050611a2360008301846117d2565b92915050565b600081519050919050565b600081905092915050565b600082825260208201905092915050565b6000611a5b82611b18565b9150611a6683611b18565b9250827fffffffffffffffffffffffffffffffffffffffffffffffffffffffffffffffff03821115611a9b57611a9a611b94565b5b828201905092915050565b6000611ab182611b18565b9150611abc83611b18565b925082821015611acf57611ace611b94565b5b828203905092915050565b6000611ae582611af8565b9050919050565b60008115159050919050565b600073ffffffffffffffffffffffffffffffffffffffff82169050919050565b6000819050919050565b600060ff82169050919050565b60005b83811015611b4d578082015181840152602081019050611b32565b83811115611b5c576000848401525b50505050565b60006002820490506001821680611b7a57607f821691505b60208210811415611b8e57611b8d611bc3565b5b50919050565b7f4e487b7100000000000000000000000000000000000000000000000000000000600052601160045260246000fd5b7f4e487b7100000000000000000000000000000000000000000000000000000000600052602260045260246000fd5b6000601f19601f8301169050919050565b7f45524332303a207472616e7366657220746f20746865207a65726f206164647260008201527f6573730000000000000000000000000000000000000000000000000000000000602082015250565b7f45524332303a206275726e20616d6f756e7420657863656564732062616c616e60008201527f6365000000000000000000000000000000000000000000000000000000000000602082015250565b7f596f752063616e206f6e6c79207265717565737420546f6b656e73206f6e636560008201527f2100000000000000000000000000000000000000000000000000000000000000602082015250565b7f52657761726420697320616c7265616479206772616e74656421000000000000600082015250565b7f45524332303a20617070726f766520746f20746865207a65726f20616464726560008201527f7373000000000000000000000000000000000000000000000000000000000000602082015250565b7f45524332303a207472616e7366657220616d6f756e742065786365656473206260008201527f616c616e63650000000000000000000000000000000000000000000000000000602082015250565b7f4661696c656420746f207472616e73666572207468652066756e64732c20616260008201527f6f7274696e672e00000000000000000000000000000000000000000000000000602082015250565b7f45524332303a207472616e7366657220616d6f756e742065786365656473206160008201527f6c6c6f77616e6365000000000000000000000000000000000000000000000000602082015250565b7f45524332303a206275726e20616d6f756e74206578636565647320616c6c6f7760008201527f616e636500000000000000000000000000000000000000000000000000000000602082015250565b7f45524332303a206275726e2066726f6d20746865207a65726f2061646472657360008201527f7300000000000000000000000000000000000000000000000000000000000000602082015250565b7f45524332303a207472616e736665722066726f6d20746865207a65726f20616460008201527f6472657373000000000000000000000000000000000000000000000000000000602082015250565b50565b7f45524332303a20617070726f76652066726f6d20746865207a65726f2061646460008201527f7265737300000000000000000000000000000000000000000000000000000000602082015250565b7f596f7520617265206e6f74206772616e74656420612072657761726421000000600082015250565b7f45524332303a2064656372656173656420616c6c6f77616e63652062656c6f7760008201527f207a65726f000000000000000000000000000000000000000000000000000000602082015250565b61201581611ada565b811461202057600080fd5b50565b61202c81611b18565b811461203757600080fd5b5056fea26469706673582212203b6f7e4a6016e9b14aec9dff02a579c39b53f6d235b692f65197a27027ea25ac64736f6c63430008040033",
  "immutableReferences": {},
  "source": "// SPDX-License-Identifier:MIT\r\npragma solidity ^0.8.0;\r\n\r\nimport \"../node_modules/@openzeppelin/contracts/token/ERC20/ERC20.sol\";\r\nimport \"../node_modules/@openzeppelin/contracts/token/ERC20/presets/ERC20PresetFixedSupply.sol\";\r\n\r\n\r\n\r\ncontract MyTestNetToken is ERC20, ERC20PresetFixedSupply {\r\n   \r\nconstructor(\r\n    string memory name, \r\n    string memory symbol, \r\n    uint256 initialSupply, \r\n    address payable owner,\r\n    address forwarder\r\n     ) ERC20PresetFixedSupply(\"MyTestNetToken\", \"MTNT\", 1000000000000000000000000, msg.sender) \r\n    {\r\n    }\r\n\r\n\r\nfunction payout(uint256 amount) public {\r\n    (bool success, ) = msg.sender.call{value: amount}(\"\");\r\n    require(success, \"Failed to transfer the funds, aborting.\");\r\n}\r\n\r\n    receive() external payable {\r\n\r\n    }\r\n\r\n\r\n}",
  "sourcePath": "D:/solidity/erc20/contracts/MyTestNetToken.sol",
  "compiler": {
    "name": "solc",
    "version": "0.8.4+commit.c7e474f2.Emscripten.clang"
  },
  "schemaVersion": "3.3.4",
  "updatedAt": "2021-05-13T09:51:44.198Z",
  "devdoc": {
    "kind": "dev",
    "methods": {
      "allowance(address,address)": {
        "details": "See {IERC20-allowance}."
      },
      "approve(address,uint256)": {
        "details": "See {IERC20-approve}. Requirements: - `spender` cannot be the zero address."
      },
      "balanceOf(address)": {
        "details": "See {IERC20-balanceOf}."
      },
      "burn(uint256)": {
        "details": "Destroys `amount` tokens from the caller. See {ERC20-_burn}."
      },
      "burnFrom(address,uint256)": {
        "details": "Destroys `amount` tokens from `account`, deducting from the caller's allowance. See {ERC20-_burn} and {ERC20-allowance}. Requirements: - the caller must have allowance for ``accounts``'s tokens of at least `amount`."
      },
      "decimals()": {
        "details": "Returns the number of decimals used to get its user representation. For example, if `decimals` equals `2`, a balance of `505` tokens should be displayed to a user as `5,05` (`505 / 10 ** 2`). Tokens usually opt for a value of 18, imitating the relationship between Ether and Wei. This is the value {ERC20} uses, unless this function is overridden; NOTE: This information is only used for _display_ purposes: it in no way affects any of the arithmetic of the contract, including {IERC20-balanceOf} and {IERC20-transfer}."
      },
      "decreaseAllowance(address,uint256)": {
        "details": "Atomically decreases the allowance granted to `spender` by the caller. This is an alternative to {approve} that can be used as a mitigation for problems described in {IERC20-approve}. Emits an {Approval} event indicating the updated allowance. Requirements: - `spender` cannot be the zero address. - `spender` must have allowance for the caller of at least `subtractedValue`."
      },
      "increaseAllowance(address,uint256)": {
        "details": "Atomically increases the allowance granted to `spender` by the caller. This is an alternative to {approve} that can be used as a mitigation for problems described in {IERC20-approve}. Emits an {Approval} event indicating the updated allowance. Requirements: - `spender` cannot be the zero address."
      },
      "name()": {
        "details": "Returns the name of the token."
      },
      "symbol()": {
        "details": "Returns the symbol of the token, usually a shorter version of the name."
      },
      "totalSupply()": {
        "details": "See {IERC20-totalSupply}."
      },
      "transfer(address,uint256)": {
        "details": "See {IERC20-transfer}. Requirements: - `recipient` cannot be the zero address. - the caller must have a balance of at least `amount`."
      },
      "transferFrom(address,address,uint256)": {
        "details": "See {IERC20-transferFrom}. Emits an {Approval} event indicating the updated allowance. This is not required by the EIP. See the note at the beginning of {ERC20}. Requirements: - `sender` and `recipient` cannot be the zero address. - `sender` must have a balance of at least `amount`. - the caller must have allowance for ``sender``'s tokens of at least `amount`."
      }
    },
    "version": 1
  },
  "userdoc": {
    "kind": "user",
    "methods": {},
    "version": 1
  }
}